:100000000C9442050C946A050C946A050C946A05DC
:100010000C946A050C946A050C946A050C946A05A4
:100020000C946A050C946A050C946A050C946A0594
:100030000C946A050C946A050C946A050C946A0584
:100040000C94380B0C946A050C946A050C946A05A0
:100050000C946A050C946A050C946A050C946A0564
:100060000C944A0C0C946A05DB40A4A62EAF200029
:10007000A1C8D300408DAED580A80000600000006C
:100080000000000000000000000000E00000000090
:1000900000000000000000000001E000000000007F
:1000A000000000000000000001F00000000000005F
:1000B0000000000000000003F0000000000000004D
:1000C00000000000000007F0000000000000000039
:1000D000000000000007F800000000000000000021
:1000E000000000000FF800000003C0007E000001C7
:1000F000E0007F0FF800000003C000FE000001E0F8
:1001000000FFEFF800000003C000FE000001E00067
:10011000FFFFF800000003C000F00000000F007FA8
:10012000FE7FC0000003C000F00000000F003FFE93
:100130007FF83FF1FBCFFCFEF3BC3DEFE01FFE7FFD
:10014000FF7FFBFFDFFEFEFFBC3DEFE01FC6FFFFB2
:100150007FFBFFDFFEFEFFBC3DEFE00FE3C7FE7855
:100160007BC3DE1EF0FFBC3DEF0007FF87FC787B02
:10017000C3DE1EF0F83C3DEF0001FFFFF0007BC343
:10018000C01EF0F03C3DEF0001F37FE03FFBC3CF2A
:10019000FEF0F03C3DEF0003E33F807FFBC3DFFE5A
:1001A000F0F03C3DEF0007E73C00787BC3DE1EF03B
:1001B000F03C3DEF0007FFBE00787BC3DE1EF0F091
:1001C0003C3DEF0007FFFE00787BC3DE1EF0F03CF5
:1001D0003DEF000FFFFE007FFBFFDFFEF0F03FFD75
:1001E000EFE00FFFFF007FFBFFDFFEF0F03FFDEFD2
:1001F000E00FF9FF003E79F9CF9EF0F01F3DE7E0F8
:100200001FF1FF0000000000000000000000001FC0
:1002100080FF007FFFFFFFFFFFFFFFFFFFE01C00ED
:100220007F007FFFFFFFFEB46D888D18E000001F88
:10023000007FFFFFFFFE95AD7DB577E000000F006A
:100240007FFFFFFFFEA5AD9D8D19E0000006007F3A
:10025000FFFFFFFEB5ADEDB57EE000000000000140
:10026000800000000000000000000380000000008B
:10027000000000000007C0000000000000000000B7
:1002800007C00000000000000000000FC0000000D8
:100290000000000000001FE000000000000000005F
:1002A000001FE00000000000000000003FE0000030
:1002B000000000000000003FF0000000000000000F
:1002C00000007FF0000000000000001FF87FF00039
:1002D0000000000000003FFE7FF000000000000072
:1002E000003FFF7FF0000000000000001FFFFBE068
:1002F000000000000000000FFFF9FFC00000000038
:1003000000000FFFF9FFF800000000000007FFF1F8
:10031000FFFF00000000000003FC73FFFF800000EF
:1003200000000001FE3FFFFF80000000000000FF12
:100330001E0FFF000000000000007FFE1FFC0000F9
:1003400000000000003FFFFFF80000000000000078
:100350000FDFFFE0000000000000001F19FFC000D9
:100360000000000000003F3CFF0000000000000013
:10037000007E7CF800000000000000007FFE7C0092
:1003800000000000000000FFFFFC00000000000073
:100390000000FFFFFE0000000000000000FFFFFE65
:1003A0000000000000000001FFEFFE000000000060
:1003B000000001FFCFFE0000000000000003FF0767
:1003C000FE0000000000000003FC07FE000000002B
:1003D00000000003F003FE000000000000000180A8
:1003E00000FE000000000000000000007E00000091
:1003F000000000000000003E0000000000000000BF
:1004000000000C000000000000078000FC0000035A
:10041000C0000000078001FC000003C000000007CE
:100420008001FC000003C0000000078001E0000024
:10043000001E000000078001E00000001E007FE3B6
:10044000F79FF9FDE7787BDFC0FFF7FFBFFDFDFFFA
:10045000787BDFC0FFF7FFBFFDFDFF787BDFC0F0DB
:10046000F787BC3DE1FF787BDE00F0F787BC3DE11C
:10047000F0787BDE0000F787803DE1E0787BDE00EE
:100480007FF7879FFDE1E0787BDE00FFF787BFFD08
:10049000E1E0787BDE00F0F787BC3DE1E0787BDED1
:1004A00000F0F787BC3DE1E0787BDE00F0F787BC29
:1004B0003DE1E0787BDE00FFF7FFBFFDE1E07FFB81
:1004C000DFC0FFF7FFBFFDE1E07FFBDFC07CF3F3A0
:1004D0009F3DE1E03E7BCFC0000000000000000037
:1004E000000000FFFFFFFFFFFFFFFFFFFFC0FFFF58
:1004F000FFFFFD68DB111A31C0FFFFFFFFFD2B5A24
:10050000FB6AEFC0FFFFFFFFFD4B5B3B1A33C0FFF1
:10051000FFFFFFFD6B5BDB6AFDC00000000800020F
:1005200001000003040700000000000000000000BC
:100530000000003E5B4F5B3E3E6B4F6B3E1C3E7CC3
:100540003E1C183C7E3C181C577D571C1C5E7F5E71
:100550001C00183C1800FFE7C3E7FF001824180030
:10056000FFE7DBE7FF30483A060E262979292640C7
:100570007F050507407F05253F5A3CE73C5A7F3EF3
:100580001C1C08081C1C3E7F14227F22145F5F0085
:100590005F5F06097F017F006689956A6060606021
:1005A0006094A2FFA29408047E040810207E20100C
:1005B00008082A1C08081C2A08081E101010100C15
:1005C0001E0C1E0C30383E3830060E3E0E06000063
:1005D00000000000005F00000007000700147F1407
:1005E0007F14242A7F2A1223130864623649562076
:1005F000500008070300001C2241000041221C009B
:100600002A1C7F1C2A08083E080800807030000859
:1006100008080808000060600020100804023E512D
:1006200049453E00427F40007249494946214149BF
:100630004D331814127F1027454545393C4A494926
:100640003141211109073649494936464949291E90
:10065000000014000000403400000008142241147F
:1006600014141414004122140802015909063E41D1
:100670005D594E7C1211127C7F494949363E4141F9
:1006800041227F4141413E7F494949417F09090952
:10069000013E414151737F0808087F00417F4100BE
:1006A0002040413F017F081422417F404040407F6D
:1006B000021C027F7F0408107F3E4141413E7F09BA
:1006C0000909063E4151215E7F09192946264949FB
:1006D000493203017F01033F4040403F1F2040203B
:1006E0001F3F4038403F6314081463030478040339
:1006F0006159494D43007F414141020408102000E7
:100700004141417F04020102044040404040000357
:1007100007080020545478407F2844443838444423
:100720004428384444287F385454541800087E091B
:100730000218A4A49C787F0804047800447D40003B
:100740002040403D007F1028440000417F40007C55
:10075000047804787C080404783844444438FC184D
:1007600024241818242418FC7C0804040848545431
:10077000542404043F44243C4040207C1C2040205E
:100780001C3C4030403C44281028444C9090907CC5
:100790004464544C440008364100000077000000D7
:1007A0004136080002010204023C2623263C1EA119
:1007B000A161123A4040207A385454555921555578
:1007C0007941225454784221555478402054557927
:1007D000400C1E52721239555555593954545459BA
:1007E00039555454580000457C410002457D420073
:1007F00001457C407D1211127DF0282528F07C54A3
:100800005545002054547C547C0A097F493249499B
:1008100049323A4444443A324A4848303A41412104
:100820007A3A42402078009DA0A07D3D4242423D60
:100830003D4040403D3C24FF2424487E4943662BF4
:100840002FFC2F2BFF0929F620C0887E0903205496
:100850005479410000447D413048484A3238404094
:10086000227A007A0A0A727D0D19317D2629292FF4
:1008700028262929292630484D402038080808080C
:1008800008080808382F10C8ACBA2F102834FA000E
:10089000007B000008142A142222142A1408550090
:1008A000550055AA55AA55AAFF55FF55FF0000004F
:1008B000FF00101010FF00141414FF001010FF00B0
:1008C000FF1010F010F0141414FC001414F700FFC3
:1008D0000000FF00FF1414F404FC141417101F1080
:1008E000101F101F1414141F00101010F00000002F
:1008F000001F101010101F10101010F0100000003A
:10090000FF101010101010101010FF10000000FF4A
:10091000140000FF00FF00001F10170000FC04F48B
:1009200014141710171414F404F40000FF00F71443
:10093000141414141414F700F714141417141010CA
:100940001F101F141414F4141010F010F000001FE6
:10095000101F0000001F14000000FC140000F01025
:10096000F01010FF10FF141414FF141010101F00CB
:10097000000000F010FFFFFFFFFFF0F0F0F0F0FFCD
:10098000FFFF0000000000FFFF0F0F0F0F0F3844A4
:10099000443844FC4A4A4A347E02020606027E0279
:1009A0007E0263554941633844443C04407E201E26
:1009B0002006027E020299A5E7A5991C2A492A1C55
:1009C0004C7201724C304A4D4D303048784830BC42
:1009D000625A463D3E494949007E0101017E2A2A6C
:1009E0002A2A2A44445F444440514A444040444AED
:1009F00051400000FF0103E080FF000008086B6B1E
:100A0000083612362436060F090F060000181800A3
:100A100000001010003040FF0101001F01011E0006
:100A2000191D1712003C3C3C3C0000000000000176
:100A300003070F1F3F7F0080C0E0F0F8FCFE0000BE
:100A40000000250028002B000000000024002700E3
:100A50002A00040404040404040402020202020240
:100A60000303030303030102040810204080010272
:100A7000040810200102040810202200FF210000B9
:100A80006A175B1711241FBECFEFD8E0DEBFCDBFC2
:100A900011E0A0E0B1E0EEE2F2E302C005900D92B9
:100AA000AC34B107D9F722E0ACE4B1E001C01D924B
:100AB000AA35B207E1F715E0C1E4D5E004C02197FB
:100AC000FE010E94D717C034D107C9F70E946314F2
:100AD0000C940A190C94000008950895CF92DF92A7
:100AE000EF92FF920F931F93CF93DF936C017A01E4
:100AF0008B01C0E0D0E0CE15DF0581F0D8016D910B
:100B00008D01D601ED91FC910190F081E02DC6019F
:100B10000995892B11F02196EECF7E01C701DF9157
:100B2000CF911F910F91FF90EF90DF90CF9008959C
:100B30000895FC016370668B8481958126813781DD
:100B4000613039F0633029F09187808733872287BD
:100B50000895318720879387828708956F927F92C7
:100B60008F929F92AF92BF92CF92DF92EF92FF92BD
:100B70000F931F93CF93DF93EC014B015A0169014F
:100B80003801E881F9810284F385E02D0995E88137
:100B9000F9810288F389E02D87019601A501B4014E
:100BA000CE010995A501460D571D41505109E88117
:100BB000F9810288F389E02D9601B401CE010995EF
:100BC000E881F9810088F189E02D9301A501B40144
:100BD000CE010995C80CD91CB60161507109E88194
:100BE000F9810088F189E02D9301A501CE010995D5
:100BF000E881F9810688F789E02DCE01DF91CF9158
:100C00001F910F91FF90EF90DF90CF90BF90AF902A
:100C10009F908F907F906F9009948F929F92AF9248
:100C2000BF92CF92DF92EF92FF920F931F93CF93D9
:100C3000DF934C016B015A01E901DC01ED91FC915C
:100C40006217730781F40417150724F48B2D5801DC
:100C5000042F182F0A191B0998012F5F3F4F048C8E
:100C6000F58DE02D12C04017510709F526173707FB
:100C700024F48D2D6901C62FD82F9E012C193D0912
:100C80002F5F3F4F068CF78DE02D8701A501B60140
:100C9000C4010995DF91CF911F910F91FF90EF90C3
:100CA000DF90CF90BF90AF909F908F900895028477
:100CB000F385E02D0995D401ED91FC910488F58927
:100CC000E02D9E01A501B601C4010995D401ED9165
:100CD000FC910688F789E02DC401DF91CF911F9127
:100CE0000F91FF90EF90DF90CF90BF90AF909F90CB
:100CF0008F900994EF92FF920F931F93DC011A9645
:100D00000D911C911B9718962D913C911997ED917F
:100D1000FC9100A0F1A1E02D7B0140E050E060E0FB
:100D200070E009951F910F91FF90EF9008954F92F9
:100D30005F926F927F928F929F92AF92BF92CF926B
:100D4000DF92EF92FF920F931F93CF93DF936C018B
:100D50002B015A0139014801DC01ED91FC9102841B
:100D6000F385E02D0995E201640C751CD601ED9127
:100D7000FC91C615D7055CF40088F189E02D870148
:100D80009401A501BE01C60109952196EFCF068801
:100D9000F789E02DC601DF91CF911F910F91FF9050
:100DA000EF90DF90CF90BF90AF909F908F907F900B
:100DB0006F905F904F9009948F929F92AF92BF92E5
:100DC000CF92DF92EF92FF920F931F93CF93DF9317
:100DD000EC015B014A016901E881F9810284F38534
:100DE000E02D099595012C0D3D1D21503109E8811B
:100DF000F9810488F589E02D78018401A401B50109
:100E0000CE010995E881F9810688F789E02DCE01A8
:100E1000DF91CF911F910F91FF90EF90DF90CF90D6
:100E2000BF90AF909F908F9009948F929F92AF92B6
:100E3000BF92CF92DF92EF92FF920F931F93CF93C7
:100E4000DF93EC015B014A0169017801E881F981D6
:100E50000284F385E02D0995C80CD91C8601015048
:100E60001109E881F9810488F589E02D9501A40133
:100E7000B501CE010995E881F9810688F789E02D51
:100E8000CE01DF91CF911F910F91FF90EF90DF90F6
:100E9000CF90BF90AF909F908F9009940895EF925C
:100EA000FF920F931F93DC01ED91FC9100A0F1A143
:100EB000E02D09951F910F91FF90EF9008950F93EA
:100EC0001F93DC01ED91FC91068CF78DE02D0995C7
:100ED0001F910F9108950F931F93DC01ED91FC91E9
:100EE000048CF58DE02D09951F910F910895DC017B
:100EF000ED91FC910084F185E02D09942F923F92B1
:100F00004F925F926F927F928F929F92AF92BF9219
:100F1000CF92DF92EF92FF920F931F93CF93DF93C5
:100F200000D000D000D0CDB7DEB72C017E836D831A
:100F30006A015901C801FC82EB824801841A950AB2
:100F400097FE03C091948194910835012D813E81D3
:100F5000621A730A77FE03C0719461947108681471
:100F600079045CF43A2D2B2D5C01832F922F3D8167
:100F70002E81DE82CD82C32ED22EAD81BE81AA16F5
:100F8000BB065CF43C2D2D2D6C01832F922F3D81EF
:100F90002E81BE82AD82A32EB22E85012D813E818F
:100FA000021B130B1C012C183D0837FE03C03194A3
:100FB00021943108780117FF03C03FEFE31AF30AC9
:100FC000F594E794C816D9062CF08FEF9FEF9A831B
:100FD000898304C0A1E0B0E0BA83A9832D813E815A
:100FE000A216B30624F1D201ED91FC910484F5859B
:100FF000E02D2B813C816814790424F44D815E81BD
:10100000B60103C0A6016D817E81C2010995E21877
:10101000F308F7FE06C029813A81C20ED31EE00E06
:10102000F11E8D819E8101969E838D83D7CF26965A
:101030000FB6F894DEBF0FBECDBFDF91CF911F91E9
:101040000F91FF90EF90DF90CF90BF90AF909F9067
:101050008F907F906F905F904F903F902F9008956A
:10106000FC0177FDB9C080859185681779070CF080
:10107000B3C057FDB1C082859385481759070CF05E
:1010800008958689823079F484819581DC01A61BDC
:10109000B70BBD016150710986819781DC01A41BEA
:1010A000B50BAD010EC0833009F084C064277527ED
:1010B000CA01862797276827792746815781481BC9
:1010C000590B415051092130310531F048F122309E
:1010D000310509F44AC00895CA0157FD07969C01DD
:1010E000A3E035952795AA95E1F7A481B5812A9FBC
:1010F000C0012B9F900D3A9F900D1124680F791F0E
:10110000078CF0A1E02DE60FF71F4770552781E00F
:1011100090E001C0880F4A95EAF79081892B48C07A
:10112000CA0157FD07969C0193E0359527959A953E
:10113000E1F7A481B5812A9FC0012B9F900D3A9FB2
:10114000900D1124680F791F078CF0A1E02DE60F98
:10115000F71F4770552781E090E001C0880F4A953E
:10116000EAF780959081892323C0CA0157FD07962D
:101170009C0183E0359527958A95E1F7A481B58197
:101180002A9FC0012B9F900D3A9F900D1124680F4C
:10119000791F078CF0A1E02DE60FF71F4770552748
:1011A00081E090E001C0880F4A95EAF79081892795
:1011B00080830895813009F086CF642775274627FC
:1011C00057276427752784819581DC01A61BB70BFF
:1011D000BD016150710977CF089585ED8093BC0002
:1011E0008091BC0084FDFCCF1092E50108954091F0
:1011F0008C01262F30E0240F311D21323105DCF423
:101200002091E5012430C9F4FC0180E090E08617CC
:1012100058F430918C012191DC01A459BE4FA30FE9
:10122000B11D2C930196F3CF80918C01680F6093D0
:101230008C0180E0089581E0089582E00895E091B6
:10124000B4018091B301E81730F4F0E0E45BFE4FA5
:10125000808190E008958FEF9FEF08959091B40101
:101260008091B301981750F4E92FF0E0E45BFE4F52
:10127000208130E09F5F9093B40102C02FEF3FEFD9
:10128000C90108958091B30190E02091B401821BBF
:1012900091090895CF92DF92EF92FF920F931F93DF
:1012A000CF93DF937C01CB018A012091E6012223B9
:1012B00089F0EB016B01C40ED51ECC15DD0569F07C
:1012C0006991D701ED91FC910190F081E02DC7016A
:1012D0000995F3CF642F0E94F708C801DF91CF91E1
:1012E0001F910F91FF90EF90DF90CF900895CF93D3
:1012F000DF931F92CDB7DEB769832091E6012223E9
:10130000D1F020910902203240F021E030E0FC01D0
:101310003383228380E090E015C08091E701E82FBD
:10132000F0E0E851FE4F998190838F5F8093E70151
:101330008093090205C061E0CE0101960E94F70882
:1013400081E090E00F90DF91CF910895089580E0C3
:1013500090E008950E94FE188F929F92AF92CF92D4
:10136000EF92FF920F931F93CF93DF93EC01262F01
:10137000898D9A8D009709F042C06A3059F41D8614
:101380001C862D898E859F8538E0239F800D911DB9
:10139000112443C06D3009F4AAC08F898823C9F095
:1013A0003C898C859D8546E0349F800D911D1124DC
:1013B000488559854817590764F41D861C863D8960
:1013C0008E859F8548E0349F800D911D11249F8755
:1013D0008E87EA88FB88088919894E855F856C8528
:1013E0007D85AD88CC88CE010E94A8112C898C8582
:1013F0009D8536E0239F800D911D11243EC06A30EB
:1014000079F41D861C862D89FC013896E4918E8521
:101410009F852E9F800D911D11249F878E8767C009
:101420006D3009F464C0FC0134963491631708F4FC
:101430005EC03296E491E61708F459C0462F431B6C
:10144000342FFC0132968590949047E0349F800CB5
:10145000911C1124F401329634913196E491332396
:1014600011F0E1110DC0F4013496E4912C898C85C2
:101470009D85E29F800D911D11249D878C8737C02B
:10148000F401359644915F89552319F15C89E32F66
:10149000F0E0E40FF11D47FDFA955E9FB0015F9FFC
:1014A000700D11244C855D85460F571F6885798521
:1014B0006417750774F41D861C863D89FC013896F7
:1014C000E4918E859F853E9F800D911D11249F87FD
:1014D0008E87EA88FB88088919894E855F856C8527
:1014E0007D85AD88CC88CE010E94A811BCCF81E05B
:1014F00090E0DF91CF911F910F91FF90EF90CF90EF
:10150000AF909F908F9008950F931F93CF93DF9389
:10151000DC015696EC915697E23071F0E330E9F039
:10152000E13079F5FB0114960D90BC91A02DA41B20
:10153000B50BA21BB30B18C0EC01EC81FD81E61BBF
:10154000F70BBF0161507109EE81FF81DF01A41B20
:10155000B50BAD01421B530B14C0DA01EC01EE8157
:10156000FF81E61BF70B3197F7FD0DC0EC014E81B3
:101570005F81E417F5073CF4AF01BD010E948C10B8
:1015800002C00E94F310DF91CF911F910F91089537
:101590000F931F93DC015696EC915697E23061F061
:1015A000E33009F1E13081F51496ED91FC91159746
:1015B000E41BF50B319723C0DC011496ED91FC91EF
:1015C0001597DF01A61BB70BBD01DC011696ED9147
:1015D000FC911797DF01A41BB50BAD0141505109D8
:1015E000621B730B11C0FA01DC0116964D915C91E0
:1015F0001797DA01A61BB70BBD01621B730BAB017A
:10160000BF010E94F3100CC057FD0AC0DC01169602
:10161000ED91FC9117974E175F0714F40E948C1000
:101620001F910F9108953FB7F8948091BB0190915D
:10163000BC01A091BD01B091BE0126B5A89B05C01B
:101640002F3F19F00196A11DB11D3FBFBA2FA92F41
:10165000982F8827820F911DA11DB11DBC01CD01BE
:1016600042E0660F771F881F991F4A95D1F70895AA
:101670001F920F920FB60F9211242F933F938F93C7
:101680009F93AF93BF938091B7019091B801A091C0
:10169000B901B091BA013091B60123E0230F2D3783
:1016A00020F40196A11DB11D05C026E8230F029666
:1016B000A11DB11D2093B6018093B7019093B8018D
:1016C000A093B901B093BA018091BB019091BC0184
:1016D000A091BD01B091BE010196A11DB11D8093E5
:1016E000BB019093BC01A093BD01B093BE01BF911B
:1016F000AF919F918F913F912F910F900FBE0F90BF
:101700001F90189508958EBD00000DB407FEFDCF03
:101710008EB508951F93CF93DF93FC01858D968D31
:10172000009729F1162FEF0121A131E03093E60156
:10173000209308021092E70110920902DC01ED915A
:10174000FC910190F081E02D60E009958D8D9E8DDA
:10175000DC01ED91FC910190F081E02D612F099564
:101760008D8D9E8DDF91CF911F910C94780DA5A545
:10177000B6A59C9183A9809589238C93838D948DA4
:10178000892B31F0862FDF91CF911F910C94830B21
:1017900028E030E080E8A1A5B2A591A9462F482312
:1017A00019F04C91942B03C04C91909594239C93E9
:1017B000A3A5B4A54C9192A9942B9C93A3A5B4A5E1
:1017C0004C9192A9909594239C9386952150310930
:1017D00011F7DF91CF911F9108958CBD9DBD0895A4
:1017E0001F93CF93DF93EC01162F8D8D9E8D892B48
:1017F000B1F02DA93EA94FA958AD60E074E284EF85
:1018000090E00E94B517DA01C9014097A109B1091A
:10181000B695A795979587958093B8000FC08B8D47
:101820009C8D892B21F08EAD9FAD0E94ED0BEFA515
:10183000F8A990818CA9809589238083111102C019
:1018400066EA01C067EACE010E948A0B8D8D9E8DEB
:10185000892BB1F029AD3AAD4BAD5CAD60E074E2DF
:1018600084EF90E00E94B517DA01C9014097A10901
:10187000B109B695A795979587958093B80006C04E
:10188000EFA5F8A990818CA9892B8083DF91CF9156
:101890001F9108951F920F920FB60F9211242F934C
:1018A0003F934F935F936F937F938F939F93AF93E8
:1018B000BF93EF93FF938091B900887F803609F43E
:1018C0009CC068F5883209F45BC090F4803109F45B
:1018D00054C038F4882309F4F6C0883009F44DC0A8
:1018E000F6C0883109F44CC0803209F45DC0EFC005
:1018F000803409F468C048F4803309F455C0883353
:1019000009F0E5C08093E301D8C0803509F44FC0E9
:10191000883509F45DC0883409F0D9C0D6C088394B
:1019200009F4C7C0A8F4883709F467C038F48836CA
:1019300009F463C0803709F460C0C9C0883809F46D
:10194000B8C0803909F45FC0803809F0C0C05BC0FE
:10195000803B09F486C038F4803A09F466C0883ABE
:1019600009F47FC0B4C0803C09F4A7C0883C09F4E6
:10197000A4C0883B09F48AC0AAC08091C00110C0ED
:101980009091E2018091E101981770F5E091E201F8
:1019900081E08E0F8093E201F0E0EF53FE4F8081F3
:1019A0008093BB0085EC86C08093E3018EC0E091FC
:1019B000E20181E08E0F8093E2018091BB00F0E0B4
:1019C000EF53FE4F80839091E2018091E1016EC060
:1019D000E091E20181E08E0F8093E2018091BB00F3
:1019E000F0E0EF53FE4F80838091E40181116DC0E0
:1019F00081E08093BF0184EA61C083E08093E501C8
:101A00001092AE01CFCF8091AE01803208F051C06C
:101A1000E091AE0181E08E0F8093AE018091BB001A
:101A2000F0E0E257FE4F8083BDCF85EC8093BC0091
:101A30001092E5018091AE01803230F4E091AE0168
:101A4000F0E0E257FE4F10826091AE0170E0E0914D
:101A5000AF01F091B0018EE891E009951092AE01CE
:101A600036C084E08093E50110928D0110928C01C4
:101A7000E091B101F091B201099580918C01811141
:101A800005C081E080938C0110926C01E0918D0182
:101A900081E08E0F80938D01F0E0E459FE4F80814C
:101AA0008093BB0090918D0180918C01981708F470
:101AB00079CF85E88093BC000AC085EC8093BC0098
:101AC0001092E50104C01092E3010E94ED08FF911D
:101AD000EF91BF91AF919F918F917F916F915F91A6
:101AE0004F913F912F910F900FBE0F901F9018951F
:101AF00030910902313208F04BC08091E50181112B
:101B0000FCCF9091080222E02093E50121E0209390
:101B1000E4012FEF2093E3011092E2013093E10101
:101B2000E8EEF1E0A1ECB1E020E0321721F04191C4
:101B30004D932F5FFACF1092C0012091C001990FF1
:101B4000922B9093C0019091BF01913061F410925B
:101B5000BF019091C0019093BB009091BC0093FD98
:101B6000F8CF95EC01C095EE9093BC009091E50103
:101B70009230E1F39091E3019F3F79F08091E3018E
:101B8000803241F08091E301803331F084E005C080
:101B900081E003C082E001C083E01092E70110926F
:101BA00009021092E6010895EF92FF920F931F939E
:101BB000CF93DF937C01C62F80912702909128025A
:101BC000009709F459C020912B0231E03093E601CF
:101BD000209308021092E70110920902DC01ED91B6
:101BE000FC910190F081E02D60E009958701EE24E1
:101BF000E394F12CD1E08091270290912802CC232C
:101C000099F1B0E2EB16F104D8F00E94780D8091C2
:101C10002B02D093E601809308021092E701109204
:101C200009028091270290912802DC01ED91FC913C
:101C30000190F081E02D60E00995EE24E394F12C11
:101C40008091270290912802F8016491DC01ED91C6
:101C5000FC910190F081E02D0995BFEFEB1AFB0A92
:101C6000C1500F5F1F4FC7CFDF91CF911F910F91D1
:101C7000FF90EF900C94780DE0913702F0913802CC
:101C8000908180913D028095892380838701CC23B8
:101C900009F439C0F801849120912502309126027F
:101CA000232B31F00E94830BC1500F5F1F4FEFCFEA
:101CB00028E030E040E8E0913302F0913402909166
:101CC0003B02582F542319F05081952B03C05081AB
:101CD000909595239083E0913502F09136025081E2
:101CE00090913C02952B9083E0913502F091360261
:101CF000508190913C029095952390834695215078
:101D00003109C9F6D1CFDF91CF911F910F91FF908B
:101D1000EF900895DF92EF92FF920F931F93CF936E
:101D2000DF938091270290912802892BD1F0209196
:101D30003F0230914002409141025091420260E0E6
:101D400074E284EF90E00E94B517DA01C901409770
:101D5000A109B109B695A795979587958093B80085
:101D600016C08091250290912602892B31F0809136
:101D70004802909149020E94ED0BE0913902F091E6
:101D80003A02908180913E0280958923808365E0AC
:101D90008AE79AE00E94D40D60910E0261508AE0B9
:101DA00092E00E948A0B2091100230911102C90129
:101DB000079697FD079653E0959587955A95E1F715
:101DC00020910E0230910F02829F8001839F100D9F
:101DD000929F100D1124C0912902D0912A02809166
:101DE0002702909128020C0F1D1F009709F451C083
:101DF00020912B0231E03093E601209308021092EB
:101E0000E70110920902DC01ED91FC910190F08153
:101E1000E02D60E40995EE24E394F12CDD24D394C5
:101E200080912702909128020C171D0779F1B0E2EA
:101E3000EB16F104D8F00E94780D80912B02D0921D
:101E4000E601809308021092E70110920902809146
:101E5000270290912802DC01ED91FC910190F08124
:101E6000E02D60E40995EE24E394F12C80912702A3
:101E7000909128026991DC01ED91FC910190F08133
:101E8000E02D0995BFEFEB1AFB0ACACF0E94780D2F
:101E900041C0E0913702F0913802908180913D027B
:101EA000892B80830C171D07A9F1899120912502A8
:101EB00030912602232B19F00E94830BF3CF28E0E8
:101EC00030E040E8E0913302F091340290913B021F
:101ED000582F542319F05081952B03C050819095B1
:101EE00095239083E0913502F091360250819091D4
:101EF0003C02952B9083E0913502F091360250819F
:101F000090913C02909595239083469521503109FC
:101F1000C9F6C8CF8091270290912802892BD1F071
:101F20002091430230914402409145025091460273
:101F300060E074E284EF90E00E94B517DA01C90115
:101F40004097A109B109B695A79597958795809374
:101F5000B80018C0E0913902F0913A029081809166
:101F60003E02892B80838091250290912602892B45
:101F700049F0DF91CF911F910F91FF90EF90DF908B
:101F80000C94820BDF91CF911F910F91FF90EF90F6
:101F9000DF9008952091100230911102C901079637
:101FA00097FD079623E0959587952A95E1F720916F
:101FB0000E0230910F02829FA001839F500D929FCD
:101FC000500D112460E070E08091290290912A0266
:101FD0000C9403193F924F925F926F927F928F926F
:101FE0009F92AF92BF92CF92DF92EF92FF920F93A8
:101FF0001F93CF93DF9300D000D000D0CDB7DEB7D2
:102000002C013B014A015901C901079697FD07962A
:102010009C0193E0359527959A95E1F73C832B83B6
:10202000C12CD12CE12CF12C312CC3018E0D9F1D24
:102030009A838983E016F106C4F51E821D822D81E4
:102040003E812A153B054CF5C90187709927892BDC
:1020500011F0330C0EC0ED81FE81F7FD379683E061
:10206000F595E7958A95E1F7EC0DFD1DE80DF91D55
:10207000349037FE0CC021E030E049815A816D81F7
:102080007E81640D751D8AE092E00E9477078D8144
:102090009E8101969E838D83D2CF9FEFE91AF90A24
:1020A0002B813C81C20ED31EC0CF26960FB6F8946A
:1020B000DEBF0FBECDBFDF91CF911F910F91FF907B
:1020C000EF90DF90CF90BF90AF909F908F907F90D8
:1020D0006F905F904F903F90089590E0FC01EA5917
:1020E000F54F2491FC01EE5AF54F8491882399F025
:1020F00090E0880F991FFC01E85BF54FA591B49122
:10210000FC01E25CF54F859194918FB7F894EC91C6
:10211000E22BEC938FBF08950F931F93CF93DF9320
:1021200077FF04C0260F371F60E070E0DC011496D3
:10213000CD91DC911597FB01E20FF31FCE17DF075E
:102140001CF49E01261B370B121613060CF046C01A
:10215000FA0157FD3796DF01E3E0B595A795EA95BB
:10216000E1F7AC9FF001AD9FF00DBC9FF00D112485
:102170006E0F7F1FDC015F96ED91FC919097E60F4B
:10218000F71F4770552781E090E001C0880F4A95FE
:10219000EAF7482F0130110539F078F002301105C7
:1021A000E9F42E0F3F1F13C02E0F3F1FE217F30756
:1021B000A9F08081842B8193F9CF80952E0F3F1F4A
:1021C000E217F30759F0908198239193F9CFE21722
:1021D000F30721F0808184278193F9CFDF91CF919C
:1021E0001F910F910895EF92FF920F931F93CF933A
:1021F000DF93EC0177FDA5C0EC80FD806E157F05B7
:102200000CF09FC057FF04C0240F351F40E050E082
:102210008E819F81FA01E20FF31F8E179F071CF436
:102220009C01241B350B121613060CF08AC0922F4A
:10223000842F8695869586958E9DD0018F9DB00DB5
:1022400011246A0F7B1FAF8DB8A1A60FB71F47706F
:10225000B1F188E0841B482F682F70E0FB01EA5C35
:10226000F54FE491281798F4621B71092FEF30E0C5
:1022700002C0359527956A95E2F7E22301301105F2
:1022800049F078F00230110509F05BC00EC0013052
:10229000110519F48C91E82B0AC00130110508F0E2
:1022A00049C0E0958C91E82302C08C91E827EC931B
:1022B000941708F446C02C813D81A20FB31FE92F6B
:1022C000E41BE830F8F00230110561F48E2F9C9188
:1022D00090959C932C813D81A20FB31F885088302C
:1022E000B0F70FC081E00115110509F480E0819578
:1022F0009E2F8C932C813D81A20FB31F9850983054
:10230000C0F7E770EE23E9F0F0E0E25DF54FE4910D
:102310000130110539F048F00230110591F48C912B
:10232000E82706C08C91E82B03C0E0958C91E82348
:10233000EC9307C00230110509F4B7CFAE0DBF1DF5
:10234000BECFDF91CF911F910F91FF90EF90089535
:102350002F923F924F925F926F927F928F929F92B5
:10236000AF92BF92CF92DF92EF92FF920F931F93A3
:10237000CF93DF93CDB7DEB76B970FB6F894DEBF80
:102380000FBECDBF9B8F8A8F1B014A01D22E1987AA
:1023900008873701A982DC0159962D913C915A9703
:1023A0002115310509F0FFC018968D919C91199760
:1023B000681779070CF0E7C11A968D919C911B97CD
:1023C000481759070CF0DFC1EC2DF0E0FB83EA83DE
:1023D0009B0146E0C49E200D311D11243D872C87B2
:1023E000121613060CF0CFC16A2D70E07B876A8746
:1023F00083E0660F771F8A95E1F77F876E87CB01B1
:10240000880D991D181619060CF0BDC158968C91AF
:10241000811104C08FEA8D1508F4D394AA8DBB8D69
:10242000ED91FC9111970284F385E02DCD01099582
:10243000B5E0DB9EC0011124EC2DF0E0F98BE88BB8
:1024400091012B5F3F4F3B8B2A8B3D822C822101D8
:10245000AC01421953095D8B4C8B7981672F70E079
:102460007F8B6E8BC4010896998F888FEC89FD89CC
:10247000E40DF51DE25DFA4FD49054019F828E82E7
:10248000D0FE16C0AA8DBB8DED91FC91B1E0CB12B0
:1024900009C02981213031F40484F585E02D288597
:1024A000398519C00684F785E02DE884F9841DC0BC
:1024B000488559854615570519F1AA8DBB8DED91B3
:1024C000FC91B1E0CB120DC02981213051F404847C
:1024D000F585E02D9301A501B2018A8D9B8D0995AB
:1024E0000FC00684F785E02D73010A851B852A81BC
:1024F0003B814E815F816C817D818A8D9B8D0995A9
:10250000D6943FEFA31AB30A4E815F816E897F890B
:10251000460F571F5F834E83888D998DA816B90685
:1025200009F0AECF9FEF491A590AAC81BD81E88905
:10253000F989AE0FBF1FBD83AC832A893B89421640
:10254000530609F093CF488559854615570509F478
:10255000F8C0AA8DBB8DED91FC91B1E0CB1211C0FA
:102560002981213071F4B1016B5F7F4F0088F189BF
:10257000E02D830128E030E0A4018A8D9B8D099530
:10258000E0C06C857D854A815B81641B750B068488
:10259000F785E02D73010E851F859A01A4018A8DB0
:1025A0009B8D0995CEC0F9013496E491DE1AF901AC
:1025B000329685919491B7E0DB9E800D911D112498
:1025C000F901259134913B8B2A8BFC0125913491A3
:1025D0005901FC0132965490319634913C873296E1
:1025E00074903196149141E04C1518F05981523095
:1025F00068F0672D072C000C770B7D836C83812F8F
:10260000012E000C990B9B838A8304C01B821A82C3
:102610001D821C82AA8DBB8DED91FC9111970284C5
:10262000F385E02DCD010995412CD12C612CF98148
:10263000EF2FF0E0FF83EE832C2D30E03B872A87DD
:10264000A401410F511D17FD5A955F8B4E8BB101AF
:10265000670D711D77FC7A95798F688F7C85671679
:1026600008F06FC0262D30E04A815B81420F531F76
:10267000AE81BF81A49FC001A59F900DB49F900D16
:102680001124F401E80FF91FF98BE88B842D712CCC
:102690004E895F89420F531F5D8B4C8B751408F078
:1026A0004DC051E0580F5E87877041F4C501019617
:1026B000EA89FB89EA0DFB1DD4905C01D7FE3AC084
:1026C00061E0C61216C07981713099F4AA8DBB8D74
:1026D000ED91FC9111970484F585E02D28853985CD
:1026E0004C895D89688D798D670D711DCD010995C6
:1026F00021C08C819D81870D911DEA85FB858E9F70
:10270000B0018F9F700D9E9F700D1124620D731D7F
:10271000AA8DBB8DED91FC9111970684F785E02D74
:10272000E884F9840E811F812A853B85488959896F
:10273000CD010995DD0C73948E85B0CF450C639463
:102740008DCFAA8DBB8DED91FC9111970688F789ED
:10275000E02DCD016B960FB6F894DEBF0FBECDBF56
:10276000DF91CF911F910F91FF90EF90DF90CF906D
:10277000BF90AF909F908F907F906F905F904F90A1
:102780003F902F9009946B960FB6F894DEBF0FBE62
:10279000CDBFDF91CF911F910F91FF90EF90DF9010
:1027A000CF90BF90AF909F908F907F906F905F90F1
:1027B0004F903F902F90089590E0FC01E65EFA4F15
:1027C0002491FC01EA59F54F3491FC01EE5AF54F82
:1027D000E491EE2309F43CC0222339F1233091F037
:1027E00038F42130A9F0223001F584B58F7D12C074
:1027F000273091F02830A1F02430B9F48091800086
:102800008F7D03C0809180008F77809380000DC002
:1028100084B58F7784BD09C08091B0008F7703C0E5
:102820008091B0008F7D8093B000F0E0EE0FFF1F2D
:10283000E25CF54FA591B4919FB7F894611104C083
:102840008C913095382302C0EC913E2B3C939FBF76
:1028500008958F929F92AF92BF92CF92DF92EF92A4
:10286000FF926B017C010E94130B4B015C01C114B0
:10287000D104E104F104F1F00E94130BDC01CB015F
:1028800088199909AA09BB09883E9340A105B10599
:1028900070F321E0C21AD108E108F10888EE880E31
:1028A00083E0981EA11CB11CC114D104E104F10401
:1028B00019F7DDCFFF90EF90DF90CF90BF90AF90F2
:1028C0009F908F900895789484B5826084BD84B57C
:1028D000816084BD85B5826085BD85B5816085BD1B
:1028E00080916E00816080936E00109281008091D3
:1028F000810082608093810080918100816080935B
:102900008100809180008160809380008091B1007F
:1029100084608093B1008091B00081608093B000AA
:1029200080917A00846080937A0080917A0082603E
:1029300080937A0080917A00816080937A00809100
:102940007A00806880937A001092C10080912902F9
:1029500090912A02892B11F52091100230911102D9
:10296000C901079697FD079613E0959587951A95E7
:10297000E1F720910E0230910F02AC01429FC0019D
:10298000439F900D529F900D11240E94DD1790934C
:102990002A0280932902892B09F42BC10E94CA0FB5
:1029A0008091100290911102813291050CF479C14D
:1029B000BC016054710977FF02C06F5F7F4F75954E
:1029C000679580910E0290910F028255910997FDB3
:1029D000019600E410E022E530E04AE552E09595EA
:1029E00087950E94EA0F82E080932C028091270253
:1029F00090912802892B09F46CC18CE380932B02FF
:102A00001092B4011092B3011092E70110920902E2
:102A10001092E50181E08093E4011092BF0161E032
:102A200082E10E94DC1361E083E10E94DC1380916B
:102A3000B9008E7F8093B9008091B9008D7F80931B
:102A4000B90088E48093B80085E48093BC008CE6EC
:102A500095E09093B2018093B1018DE695E090935B
:102A6000B0018093AF018091320287FD1DC00E94AA
:102A70006D1061E0809132020E94DC1361E070E031
:102A800080E090E00E94291460E0809132020E9470
:102A9000DC136AE070E080E090E00E94291461E0BD
:102AA000809132020E94DC138091270290912802CB
:102AB000892B09F4C5C120913F0230914002409119
:102AC00041025091420260E074E284EF90E00E9483
:102AD000B517DA01C9014097A109B109B695A795C3
:102AE000979587958093B80064E086E790E00E9410
:102AF000D40D6091100261508AE092E00E948A0B2E
:102B000064E082E790E00E94D40D80912C02813035
:102B100009F4ADC164E18AE092E00E948A0B64E0AE
:102B20008EE690E00E94D40D8FE88093470280915A
:102B30000E0290910F028038910509F09CC180919E
:102B40001002909111028034910509F0A6C1809184
:102B50002C02813009F48DC18FEC80934702C2E1D1
:102B60006AED8AE092E00E948A0B6C2F8AE092E084
:102B70000E948A0B61E88AE092E00E948A0B6091D1
:102B800047028AE092E00E948A0B69ED8AE092E0B7
:102B90000E948A0B80912C02813009F480C161EF80
:102BA0008AE092E00E948A0B66E088E690E00E944C
:102BB000D40D8091270290912802892B09F471C1CC
:102BC00020914302309144024091450250914602C7
:102BD00060E074E284EF90E00E94B517DA01C90169
:102BE0004097A109B109B695A795979587958093C8
:102BF000B8000E94CA0F0E948A0E21E030E040E037
:102C000050E060E070E08AE092E00E94300821E04D
:102C100030E040E050E06FE770E08AE092E00E9430
:102C2000300821E030E04FE350E060E070E08AE0FF
:102C300092E00E94300821E030E04FE350E06FE77F
:102C400070E08AE092E00E94300881E080931E02EA
:102C500080931F0281E090E090931D0280931C02FC
:102C600090931B0280931A028BE190E090931702DD
:102C7000809316028EE190E09093190280931802DF
:102C800046E050E064E471E08AE092E00E946E0564
:102C90000E948A0EC0E0D0E02097F1F30E9400006D
:102CA000FBCFBC016052710977FF02C06F5F7F4F9D
:102CB0007595679580910E0290910F028357910947
:102CC00097FD019600E210E023E730E04AE750E08C
:102CD00086CE809130020E946D10809131020E9458
:102CE0006D1080913002082E000C990BFC01EE5AF9
:102CF000F54FE491F0E0EE0FFF1FE25CF54F2591F8
:102D000034913093380220933702FC01EA59F54F91
:102D1000E491E0933D0280913102082E000C990B62
:102D2000FC01EE5AF54FE491F0E0EE0FFF1FE25C7C
:102D3000F54FA591B491B0933A02A0933902FC01EA
:102D4000EA59F54FE491E0933E028C91E82BEC9325
:102D50008091250290912602892B89F1CFB7F894B2
:102D60008091B501811124C0ECE5FAE08491E0E79F
:102D7000FAE09491E82FF0E0EE0FFF1FE85BF54FCB
:102D8000A591B491EC91E92321F461E08AE00E94DD
:102D9000DC138AE00E946D108CB580618CBD8CB50F
:102DA00080648CBD8DE00E946D108BE00E946D10E0
:102DB0008091B5018F5F8093B501CFBF54CE8091D4
:102DC0002E020E946D1080912F020E946D10809142
:102DD0002E02082E000C990BFC01EE5AF54FE491DF
:102DE000F0E0EE0FFF1FE25CF54F25913491309338
:102DF000340220933302FC01EA59F54FE491E09349
:102E00003B0280912F02082E000C990BFC01EE5A18
:102E1000F54FE491F0E0EE0FFF1FE25CF54FA59156
:102E2000B491B0933602A0933502FC01EA59F54FF4
:102E3000E491E0933C028C91E095E823EC9313CE6F
:102E40008091250290912602892B31F080914802D1
:102E5000909149020E94ED0BE0913902F0913A0203
:102E6000908180913E028095892380833DCE60E1F0
:102E700052CE8FE972CE8036910579F4809110029E
:102E800090911102409749F480912C02813011F009
:102E90008FEA01C080E180934702C2E061CE62E226
:102EA0007FCEE0913902F0913A02908180913E020A
:102EB000892B80839ECE8CE191E090930B028093CE
:102EC0000A028091290290912A02009711F00C9435
:102ED00075180895AAE4B2E013961C921E921297F8
:102EE00048EE53E060E070E014964D935D936D936F
:102EF0007C9317978AE091E011969C938E93EAE079
:102F0000F2E01382128220E830E03583248380E4EB
:102F100090E0978386833187208793878287168AFC
:102F2000158614861786168681E0858B848B2FEF95
:102F30003FEF338B228B318B208B878B108E128E41
:102F4000118E8CE191E091838083148E138EB68F65
:102F5000A58F10A2178E8FEF84A385A386A387A3C6
:102F600080A780E586AF17AE0895A1E21A2EAA1BAE
:102F7000BB1BFD010DC0AA1FBB1FEE1FFF1FA21729
:102F8000B307E407F50720F0A21BB30BE40BF50B26
:102F9000661F771F881F991F1A9469F760957095AF
:102FA000809590959B01AC01BD01CF010895EE0F76
:102FB000FF1F0590F491E02D09940F931F93CF9379
:102FC000DF938230910510F482E090E0E0915802A6
:102FD000F091590220E030E0A0E0B0E0309719F124
:102FE000408151810281138148175907C8F0841725
:102FF000950769F4109731F012960C931297139677
:103000001C9327C0009358021093590222C0211527
:10301000310519F04217530718F49A01BD01EF0169
:10302000DF01F801DBCF21153105F9F0281B390B41
:103030002430310580F48A819B816115710521F06E
:10304000FB019383828304C09093590280935802BA
:10305000FE01329644C0FE01E20FF31F819391936B
:1030600022503109398328833AC020915602309189
:103070005702232B41F42091020130910301309338
:103080005702209356022091000130910101211531
:10309000310541F42DB73EB740910401509105012F
:1030A000241B350BE0915602F0915702E217F3070B
:1030B000A0F42E1B3F0B2817390778F0AC014E5FA8
:1030C0005F4F2417350748F04E0F5F1F509357028C
:1030D000409356028193919302C0E0E0F0E0CF016B
:1030E000DF91CF911F910F910895CF93DF930097B8
:1030F00009F481C0FC01329713821282A091580218
:10310000B0915902109781F420813181820F931F71
:1031100020915602309157022817390751F5F09344
:103120005702E093560267C0ED0120E030E0CE1771
:10313000DF0740F44A815B819E0141155105F1F0A2
:10314000EA01F5CFD383C28340815181840F951F5B
:10315000C817D90759F488819981840F951F029661
:10316000918380838A819B8193838283211531059A
:1031700029F4F0935902E09358023DC0E901FB8322
:10318000EA8349915991C40FD51FEC17FD0761F4EB
:1031900080819181840F951F0296E901998388832C
:1031A000828193819B838A83E0E0F0E012968D9187
:1031B0009C911397009719F0FD01DC01F7CF8D91D9
:1031C0009C9111979D012E5F3F4F820F931F20917D
:1031D0005602309157022817390769F4309729F4BD
:1031E000109259021092580202C013821282B093B8
:1031F0005702A0935602DF91CF91089581E090E0AD
:10320000F8940C940A19DC0101C06D9341505040B0
:10321000E0F7089515E0C1E4D5E004C0FE010E9486
:0E322000D7172196C234D107C9F7F894FFCF13
:10322E0000005A0280000000000077094A09A70931
:10323E004E0742092E091F0900000000AC096E0559
:10324E00A709A60930084E0777074F076B075F07D8
:10325E007E074E079905F00B840AC80A97067A0670
:0C326E000D06AE054E415645454E0000D1
:107E0000112484B714BE81FFF0D085E080938100F7
:107E100082E08093C00088E18093C10086E0809377
:107E2000C20080E18093C4008EE0C9D0259A86E02C
:107E300020E33CEF91E0309385002093840096BBD3
:107E4000B09BFECF1D9AA8958150A9F7CC24DD24C4
:107E500088248394B5E0AB2EA1E19A2EF3E0BF2EE7
:107E6000A2D0813461F49FD0082FAFD0023811F036
:107E7000013811F484E001C083E08DD089C08234E0
:107E800011F484E103C0853419F485E0A6D080C0E4
:107E9000853579F488D0E82EFF2485D0082F10E0AE
:107EA000102F00270E291F29000F111F8ED06801E7
:107EB0006FC0863521F484E090D080E0DECF843638
:107EC00009F040C070D06FD0082F6DD080E0C81688
:107ED00080E7D80618F4F601B7BEE895C0E0D1E017
:107EE00062D089930C17E1F7F0E0CF16F0E7DF06D8
:107EF00018F0F601B7BEE89568D007B600FCFDCFD4
:107F0000A601A0E0B1E02C9130E011968C91119780
:107F100090E0982F8827822B932B1296FA010C0160
:107F200087BEE89511244E5F5F4FF1E0A038BF0790
:107F300051F7F601A7BEE89507B600FCFDCF97BE46
:107F4000E89526C08437B1F42ED02DD0F82E2BD052
:107F50003CD0F601EF2C8F010F5F1F4F84911BD097
:107F6000EA94F801C1F70894C11CD11CFA94CF0C13
:107F7000D11C0EC0853739F428D08EE10CD085E9AC
:107F80000AD08FE07ACF813511F488E018D01DD067
:107F900080E101D065CF982F8091C00085FFFCCF94
:107FA0009093C60008958091C00087FFFCCF809118
:107FB000C00084FD01C0A8958091C6000895E0E648
:107FC000F0E098E1908380830895EDDF803219F02E
:107FD00088E0F5DFFFCF84E1DECF1F93182FE3DFCA
:107FE0001150E9F7F2DF1F91089580E0E8DFEE27F6
:047FF000FF270994CA
:027FFE00040479
:0400000300007E007B
:00000001FF
