:100000000C94DA000C9402010C9402010C9402018D
:100010000C9402010C9402010C9402010C94020154
:100020000C9402010C9402010C9402010C94020144
:100030000C9402010C9402010C9402010C94020134
:100040000C94C6090C9402010C94360A0C94100A04
:100050000C9402010C9402010C9402010C94020114
:100060000C9402010C940201626C6E6B696E660066
:1000700076657200312E302E3100682D6265617414
:1000800000343500627566662D696E0032353600C3
:100090006465760041726475696E6F20556E6F00FD
:1000A0006370750041546D65676133323850006389
:1000B0006F6E0053747265616D006275696C6400E7
:1000C0004E6F7620323220323032312032333A33A2
:1000D000323A303200000000000000240027002ADD
:1000E0000000000000250028002B00000000002375
:1000F000002600290004040404040404040202028B
:100100000202020303030303030102040810204058
:1001100080010204081020010204081020000000E1
:1001200008000201000003040700000000000000B6
:100130000005010501050105010501050105010590
:10014000010501050105010501050105010501057F
:10015000010501050105010501050105010501056F
:10016000010501050105010501050105010501055F
:1001700001040127031A030D03040104010401040F
:100180000104010401040104010401040104010447
:100190000104010401040104010401040104010437
:1001A0000104010401040104010401040104010427
:1001B00001004E0B11241FBECFEFD8E0DEBFCDBF34
:1001C00011E0A0E0B1E0E2EAFAE102C005900D9290
:1001D000AE34B107D9F722E0AEE4B1E001C01D9220
:1001E000A431B207E1F710E0CAEDD0E004C02197D6
:1001F000FE010E94230DC93DD107C9F70E946A0A7A
:100200000C944F0D0C94000008950895833081F0F4
:1002100028F4813099F08230A1F008958730A9F058
:100220008830B9F08430D1F4809180008F7D03C094
:10023000809180008F7780938000089584B58F77B8
:1002400002C084B58F7D84BD08958091B0008F7702
:1002500003C08091B0008F7D8093B00008951F93FC
:10026000CF93DF93282F30E0F901E35EFE4F8491B6
:10027000F901E75FFE4FD491F901EB50FF4FC491B4
:10028000CC23C1F0162F81110E940601EC2FF0E063
:10029000EE0FFF1FEF51FF4FA591B4919FB7F89458
:1002A000111104C08C91D095D82302C0EC91DE2BA3
:1002B000DC939FBFDF91CF911F910895CF93DF9380
:1002C00090E0FC01E75FFE4F2491FC01EB50FF4FF3
:1002D0008491882361F190E0880F991FFC01E95215
:1002E000FF4FC591D491FC01EF51FF4FA591B491FF
:1002F000611109C09FB7F894888120958223888373
:10030000EC912E230BC0623061F49FB7F894888182
:10031000322F309583238883EC912E2B2C939FBF13
:1003200006C08FB7F894E8812E2B28838FBFDF910A
:10033000CF9108952FB7F89460914F0170915001BB
:1003400080915101909152012FBF0895CF92DF9279
:10035000EF92FF920F931F93CF93DF936C017A017B
:100360008B01C0E0D0E0CE15DF0581F0D8016D91A2
:100370008D01D601ED91FC910190F081E02DC60137
:100380000995892B11F02196EECF7E01C701DF91EF
:10039000CF911F910F91FF90EF90DF90CF90089534
:1003A00080E090E00895FC01538D448D252F30E0CE
:1003B000842F90E0821B930B541710F0CF96089572
:1003C00001970895FC01918D828D981761F0828DBF
:1003D000DF01A80FB11D5D968C91928D9F5F9F7379
:1003E000928F90E008958FEF9FEF0895FC01918D1B
:1003F000828D981731F0828DE80FF11D858D90E088
:1004000008958FEF9FEF0895FC01918D228D892F24
:1004100090E0805C9F4F821B91098F73992708950C
:1004200087E591E00E94040221E0892B09F420E095
:10043000822F0895FC01848DDF01A80FB11DA35AFE
:10044000BF4F2C91848D90E001968F739927848FF4
:10045000A689B7892C93A089B1898C918370806417
:100460008C93938D848D981306C00288F389E02DB8
:1004700080818F7D80830895EF92FF920F931F9369
:10048000CF93DF93EC0181E0888F9B8D8C8D981347
:1004900005C0E889F989808185FD26C0F62E0B8D7F
:1004A00010E00F5F1F4F0F731127E02E8C8DE812A5
:1004B0000CC00FB607FCFACFE889F989808185FF67
:1004C000F5CFCE010E941A02F1CF8B8DFE01E80F0D
:1004D000F11DE35AFF4FF0829FB7F8940B8FEA8922
:1004E000FB89808180620AC09FB7F894EE89FF89FA
:1004F0006083E889F98980818370806480839FBFED
:1005000081E090E0DF91CF911F910F91FF90EF90EC
:100510000895CF93DF93EC01888D8823C9F0EA8991
:10052000FB89808185FD05C0A889B9898C9186FDEC
:100530000FC00FB607FCF5CF808185FFF2CFA889E9
:10054000B9898C9185FFEDCFCE010E941A02E7CFC9
:10055000DF91CF91089580E090E0892B29F00E94EF
:10056000100281110C94000008958F929F92AF9217
:10057000BF92CF92DF92EF92FF920F931F93CF9390
:10058000DF936C018B017B01E40EF51E0E949A0142
:100590004B015C01E801CE15DF05D8F40E949A01F9
:1005A000DC01CB0188199909AA09BB098037974159
:1005B000A105B10570F4D6018D919C91DC01ED91FE
:1005C000FC910284F385E02D099597FDE4CF899392
:1005D000E2CFCE01801B910BDF91CF911F910F9144
:1005E000FF90EF90DF90CF90BF90AF909F908F9053
:1005F00008950895DC01ED91FC911197309761F019
:1006000012962D913C911397E217F30728F401906D
:100610000020E9F7ED93FC930895FB01808191811F
:100620000E94BF0C019711F461E001C060E08BE013
:100630000C942F01FB01808191810E94BF0C0197D6
:1006400011F461E001C060E08CE00C942F01FB012B
:10065000808191810E94BF0C019711F461E001C07B
:1006600060E08DE00C942F01FC0180819181009766
:1006700039F0228133818217930710F40C94BF0C58
:1006800080E090E008950E94290D0F931F93CF936F
:10069000DF93FC01228133816115710561F4808152
:1006A0009181A9014F5F5F4F53834283FC01E20FA9
:1006B000F31F10821DC0DB010D900020E9F78D01B2
:1006C000061B170BA801420F531F848195818417C5
:1006D000950770F0EF0180819181A801820F931F2F
:1006E0000E942E0D4A815B81400F511F5B834A831C
:1006F000DF91CF911F910F9108950F931F93CF9387
:10070000DF93CDB7DEB762970FB6F894DEBF0FBEAA
:10071000CDBF8C01CB014AE0BE016F5F7F4F0E94CD
:10072000E60CBE016F5F7F4FC8010E9445036296D1
:100730000FB6F894DEBF0FBECDBFDF91CF911F91F2
:100740000F9108952F923F924F925F926F927F92F6
:100750008F929F92AF92BF92CF92DF92EF92FF92D1
:100760000F931F93CF93DF93CDB7DEB7A3970FB649
:10077000F894DEBF0FBECDBF6C012DB73EB73BA3D3
:100780002AA30E94680AD60157968D919C9158978A
:10079000029709F404C156968C9156978F5F56962E
:1007A0008C93569754962D913C915597232B09F095
:1007B000ECC0833008F0E9C0D601ED91FC91728065
:1007C0007720B1F0FE0131965F0150E1452E512CAA
:1007D000D601ED91FC9180819181DC01ED91FC913C
:1007E0000084F185E02D0995181619060CF4D9C07E
:1007F0000E949A012B013C01F60100811181D80170
:1008000012969C9012978789908D8130910509F0FE
:1008100063C0911009C046865786608A718A108E1F
:10082000178A12961C92B3C0F60186819781A08523
:10083000B185A3019201281B390B4A0B5B0BDA012E
:10084000C901893136EF9307A105B10530F0108E4B
:10085000178AD80112961C925BC0893C9F4AA10559
:10086000B10598F4F60182859385A485B585A30129
:100870009201281B390B4A0B5B0BDA01C901893C39
:100880009F4AA105B10508F480C0F60186859785C9
:10089000A089B189A3019201281B390B4A0B5B0B7C
:1008A000DA01C90181379741A105B10508F46DC08E
:1008B000E12CF12C00E010E020E030E040E050E0DE
:1008C00066E0C6010E946C08D6011E964D925D92AC
:1008D0006D927C9251975BC0892B09F056C0F6014E
:1008E00086859785A089B189481A590A6A0A7B0AC0
:1008F000992081F0F1E74F16F7E15F06610471047A
:1009000008F443C0D80112961C92F601108E178A83
:10091000912C3DC0F9E84F16F3E15F0661047104C4
:10092000A0F1D80112961C9212978D919C91DC0136
:10093000ED91FC910680F781E02D099581E0F801A9
:10094000828381E090E0D60153969C938E935297D8
:1009500012962D913C911397F90101900020E9F72F
:1009600031978F01021B130BE12CF12C41E050E079
:100970006DE1C6010E946C08F60182859385A4850D
:10098000B58586879787A08BB18B99249394D601E0
:1009900056968C915697815056968C937CC3912C89
:1009A0007AC345E050E0BE01695E7F4FF601808169
:1009B00091810E94B502009709F401C3059709F0DF
:1009C000FCC2888D998D982789279827998F888FC1
:1009D0000A8D1B8D1027012710271B8F0A8F892B4B
:1009E00009F4EBC28F89811139C00E949A01F60186
:1009F00066837783808791872789308D4A8D5B8DC9
:100A0000232B39F5288D398D2130310511F54930E9
:100A10005105D1F0483C510521F04430510509F011
:100A2000CCC2D6011E966D937D938D939C93519766
:100A3000E1E0F0E05896FC93EE935797C6010E94D0
:100A400068090E94680ABBC283E090E0908F878BA0
:100A5000B4C24530510509F0BBCEAFC2F60180816A
:100A600091810130F1E01F0740F0D60158961C92A9
:100A70001E925797FC011282A2C22DB73EB739A32E
:100A800028A398012F5F3F4F4DB75EB7421B530B12
:100A90000FB6F8945EBF0FBE4DBFADB7BEB711968F
:100AA0007D01A801BD010E94B5028017910709F0E0
:100AB00079C2EA8DFB8DEE0DFF1D10820E949A0116
:100AC000F60166837783808791878F89813109F466
:100AD0004DC248F4863031F18F3009F479C082304C
:100AE00009F058C20DC08D3159F020F4843109F459
:100AF0006FC050C2893219F1873309F455C24AC216
:100B0000D60157968D919C915897892B59F4E1E025
:100B1000F0E05896FC93EE935797C6010E9468093F
:100B20000E94680A488D598DE12CF12C08EC10E0E8
:100B300020E030E060E0C6010E946C0835C284818C
:100B40009581892B39F480E490E00E949E0BF60198
:100B5000958384838A8D9B8D8E0D9F1DFA82E982F9
:100B60009C838B83E816F90608F01CC240E450E031
:100B7000B701D60114968D919C9115970E94400D56
:100B8000D6011496ED91FC91159717AEC5010E9400
:100B9000FA02D601ED91FC911197128258961C929F
:100BA0001E9257970E949A01DC01CB01885893410D
:100BB000A109B109F60182879387A487B587868347
:100BC0009783A087B18786879787A08BB18BECC16D
:100BD000888D998DD60155969C938E9354972A8C27
:100BE0003B8C4701820C931CFD8EEC8E9F8E8E8E6B
:100BF000E814F90408F0B6C1F70100811181CE01B3
:100C00004C960E94FA02DC018D919C918815990501
:100C100008F0A8C18C8D9D8DFC012081213459F4F0
:100C200001960E94BF0C863091050CF036C14EE053
:100C3000642E680E05C0CE014C960E943403682EC7
:100C40000637F2E71F0709F42FC158F4013632E7DF
:100C5000130709F477C0043642E7140709F06FC19F
:100C600016C0043687E7180709F454C0063797E71B
:100C7000190709F43AC10136174709F064C1A3C046
:100C8000043642E7140709F05AC166246A94BA8A06
:100C9000A98A1C8A1B8A5E8A4D8A64E471E0CE01AF
:100CA00041960E944503062D10E0B801CE01419601
:100CB0000E947D03F801E35EFE4F8491F801E75F37
:100CC000FE4FF490F801EB50FF4F0491002399F090
:100CD00081110E940601E02FF0E0EE0FFF1FE551A9
:100CE000FF4FA591B491EC91FE2261E070E009F014
:100CF00054C060E052C060E070E04FC0073722E7A8
:100D0000120708F464C1043687E7180709F0E6C043
:100D100066246A94CE014C960E94FA02DC018D9101
:100D20009C918815990508F01DC161E0862D0E94EF
:100D30005E01CE014C960E94340361E0892B09F0DC
:100D400062C0A9C0BA8AA98A1C8A1B8A5E8A4D8A97
:100D500067E471E0CE0141960E944503662D70E084
:100D6000CE0141960E947D03BDE0B61510F4E2EF7E
:100D70006E0E862D8770806480937C0080917A004F
:100D8000806480937A0080917A0086FDFCCF609128
:100D900078008091790070E0782BCE0141960E9416
:100DA0007D030B891C890150110929893A89E12C9D
:100DB000F12C40E050E064E1D2C00136174709F061
:100DC000C2C066246A94CE014C960E94FA02DC01ED
:100DD0008D919C918815990508F0C4C061E0862D1D
:100DE0000E945E01CE014C960E9434038C0161E0AA
:100DF000862D0E945E010115110509F44CC00F3FBC
:100E0000110529F461E0862D0E942F01ABC0E62D6B
:100E1000F0E0E35EFE4FE491E330F9F048F4E130B6
:100E2000B9F0E230A1F584B5806284BD08BD9AC0F6
:100E3000E730E9F0E83019F1E43049F580918000BD
:100E400080628093800010938B0000938A008AC098
:100E500084B5806884BD07BD85C0809180008068AE
:100E60008093800010938900009388007BC080915C
:100E7000B00080688093B0000093B30073C080918D
:100E8000B00080628093B0000093B4006BC0003863
:100E900011050CF0B7CF60E0B6CF0637F2E71F07B9
:100EA00009F02CCF66246A946982BFE1B61508F474
:100EB00059C0E62DF0E0EE0FFF1FEF5CFE4F2591CD
:100EC00034912115310509F44DC0E1E025303E078C
:100ED00009F448C0C501F901099544C0063797E7F0
:100EE000190709F06ACF66246A94CE014C960E94D5
:100EF000FA028C8D9D8D9C012E193F09221A330A0E
:100F00009A8389833C822B823E822D82698AFFE10B
:100F1000F61540F1E62DF0E0EE0FFF1FEF58FE4F03
:100F20002591349121153105E9F041E02430340751
:100F3000C9F0B501CE014196F901099513C00037FA
:100F40001D4609F480C0D60154964D915C91559789
:100F5000E12CF12C02E010E020E030E060E0C6017E
:100F60000E946C08F601158A148A1EC08A8D9B8D1A
:100F70008E0D9F1DFA82E9829C838B83E816F90609
:100F800098F4C5010E94FA02D60155961C921E9251
:100F900054970AC0F601108E178A0190F081E02D57
:100FA000128202C0912C01C0972C28A139A10FB642
:100FB000F8943EBF0FBE2DBF03C0912C03C0972CE9
:100FC000911006CCD601ED91FC911282E0CC013655
:100FD00032E7130709F054CEBA8AA98A1C8A1B8A01
:100FE0005E8A4D8A67E471E0CE0141960E94450316
:100FF0006FEF70E0CE0141960E947D0366246A94F3
:10100000B6CEFC012081213421F501960E94BF0C4F
:101010008630910524F53EE0F32EF80ECE014C9675
:101020000E94FA020C8D1D8D69E371E0C8010E94D7
:10103000370D892BB9F460E08F2D0E945E01CE013F
:101040004C960E94FA028C8D9D8D88159905C8F2E8
:1010500089CFCE014C960E943403F82EDFCFFF24B7
:10106000FA94DCCF6CE371E0C8010E94370D892B44
:1010700039F060E471E0C8010E94370D892B11F44A
:1010800061E0DACF6AE471E0C8010E94370D892B74
:10109000B1F662E0D1CF892DEAA1FBA10FB6F89499
:1010A000FEBF0FBEEDBFA3960FB6F894DEBF0FBE16
:1010B000CDBFDF91CF911F910F91FF90EF90DF9007
:1010C000CF90BF90AF909F908F907F906F905F90E8
:1010D0004F903F902F9008952F923F924F925F92A2
:1010E0007F928F929F92AF92BF92CF92DF92EF92B8
:1010F000FF920F931F93CF93DF9300D000D01F92E6
:10110000CDB7DEB77C01762E6A014901DC01ED9195
:10111000FC918281882309F4C4C0862F8D7F09F455
:10112000BBC0B6E06B1709F4B7C0EDE16E1709F468
:10113000B3C0D70157968D919C915897019709F0AC
:10114000B0C0452BA1F4F701C488D588C114D104DF
:1011500071F482899389019619F0938B828B04C074
:1011600081E090E0938B828BF701C288D38884EF73
:10117000870D8930D8F5D7011A964D915D916D9103
:101180007C911D9716968D919D910D90BC91A02DEF
:1011900084179507A607B70710F4DB01CA011C01E5
:1011A0002D01E2E42E0E311C411C511C0E949A01BB
:1011B000A2019101261B370B480B590B57FD0EC09E
:1011C000C7010E94A2030E949A01A2019101261B5D
:1011D000370B480B590B57FFF3CF08C0D701569672
:1011E0008C91811103C0C7010E94A2038114910454
:1011F00011F0580102C0A12CB12CB5E0AB0EB11C0E
:101200007982DC24CD24DC24DB82CA82902F812FDA
:101210009D838C83D701ED91FC9180819181DC01CC
:10122000ED91FC910280F381E02D45E050E0BE019C
:101230006F5F7F4F09950E94680A7720B1F0011512
:10124000110599F0D701ED91FC9180819181DC012C
:10125000ED91FC910280F381E02DA801B401099584
:101260000B5F1F4F0E94680A02C005E010E0A01645
:10127000B10641F0F701108E178A0190F081E02D40
:1012800012820FC00E949A01D7011A966D937D9326
:101290008D939C931D9705C0C114D10409F0A6CF6E
:1012A00052CF0F900F900F900F900F90DF91CF9132
:1012B0001F910F91FF90EF90DF90CF90BF90AF9074
:1012C0009F908F907F905F904F903F902F900895C8
:1012D000CF92DF92EF92FF920F931F93CF93DF9302
:1012E000CDB7DEB7C55AD1090FB6F894DEBF0FBE31
:1012F000CDBF6C0145E650E060E770E0CE0101969D
:101300000E94DD0CCE018A599F4F7C0105E610E05A
:101310009E012F5F3F4F40E050E061E1C6010E9417
:101320006C08CB55DF4F0FB6F894DEBF0FBECDBFB4
:10133000DF91CF911F910F91FF90EF90DF90CF90B1
:1013400008953FB7F8948091530190915401A09172
:101350005501B091560126B5A89B05C02F3F19F045
:101360000196A11DB11D3FBFBA2FA92F982F882725
:10137000820F911DA11DB11DBC01CD0142E0660F80
:10138000771F881F991F4A95D1F708951F920F92D2
:101390000FB60F9211242F933F938F939F93AF9388
:1013A000BF9380914F0190915001A0915101B09154
:1013B000520130914E0123E0230F2D3720F4019686
:1013C000A11DB11D05C026E8230F0296A11DB11D68
:1013D00020934E0180934F0190935001A0935101AF
:1013E000B09352018091530190915401A091550105
:1013F000B09156010196A11DB11D809353019093A8
:101400005401A0935501B0935601BF91AF919F91A4
:101410008F913F912F910F900FBE0F901F901895B5
:101420001F920F920FB60F9211242F933F934F9359
:101430005F936F937F938F939F93AF93BF93EF933C
:10144000FF9387E591E00E941A02FF91EF91BF910F
:10145000AF919F918F917F916F915F914F913F914C
:101460002F910F900FBE0F901F9018951F920F9203
:101470000FB60F9211242F938F939F93EF93FF93A7
:10148000E0916701F09168018081E0916D01F09138
:101490006E0182FD12C09081809170018F5F8F7309
:1014A00020917101821751F0E0917001F0E0E95A4A
:1014B000FE4F958F8093700101C08081FF91EF9165
:1014C0009F918F912F910F900FBE0F901F901895A5
:1014D0000C94A109789484B5826084BD84B5816040
:1014E00084BD85B5826085BD85B5816085BD8091EF
:1014F0006E00816080936E00109281008091810067
:10150000826080938100809181008160809381005E
:10151000809180008160809380008091B100846020
:101520008093B1008091B00081608093B000809181
:101530007A00846080937A0080917A008260809340
:101540007A0080917A00816080937A0080917A009D
:10155000806880937A001092C100E0916701F09159
:10156000680182E08083E0916301F0916401108260
:10157000E0916501F09166018FEC808310926F011C
:10158000E0916B01F0916C0186E08083E09169014C
:10159000F0916A01808180618083E0916901F0911E
:1015A0006A01808188608083E0916901F0916A011D
:1015B000808180688083E0916901F0916A01808177
:1015C0008F7D808380E091E09093F7018093F60116
:1015D0000E949A01DC01CB0188589341A109B1090D
:1015E0008093FE019093FF01A0930002B09301024B
:1015F0008093FA019093FB01A093FC01B093FD014D
:101600008093020290930302A0930402B093050218
:10161000E091F401F091F50187E591E091838083F9
:10162000E091F401F091F501128210920C021092F7
:101630000B020E949A016B017C0180910B02909138
:101640000C02019791F00E949A01DC01CB018C19E8
:101650009D09AE09BF0980359644A105B10528F45E
:1016600084EF91E00E94A203E8CF80910B02909159
:101670000C020197A9F661E08BE00E945E0161E037
:101680008CE00E945E0161E08DE00E945E0184EFCB
:1016900091E00E94A2030E94AB02F9CFE7E5F1E0DE
:1016A0001382128288EE93E0A0E0B0E084839583F9
:1016B000A683B7838BE291E09183808385EC90E0F1
:1016C0009587848784EC90E09787868780EC90E00C
:1016D000918B808B81EC90E0938B828B82EC90E0FD
:1016E000958B848B86EC90E0978B868B118E128E77
:1016F000138E148EADE0B2E011961C921E921296DB
:101700001C921297E4EFF1E0B183A083138212825E
:10171000158214821682178210861186128613860D
:101720001486158616861786108A118A138A128ADD
:10173000158A148A168A108E178A08950F931F939C
:10174000CF93DF938230910510F482E090E0E09136
:101750001202F091130220E030E0A0E0B0E03097F8
:1017600019F1408151810281138148175907C8F04E
:101770008417950769F4109731F012960C9312971D
:1017800013961C9327C0009312021093130222C0D9
:101790002115310519F04217530718F49A01BD01BC
:1017A000EF01DF01F801DBCF21153105F9F0281B2E
:1017B000390B2430310580F48A819B8161157105D4
:1017C00021F0FB019383828304C0909313028093E2
:1017D0001202FE01329644C0FE01E20FF31F819314
:1017E000919322503109398328833AC02091100205
:1017F00030911102232B41F42091230130912401D7
:101800003093110220931002209121013091220186
:101810002115310541F42DB73EB740912501509176
:101820002601241B350BE0911002F0911102E21702
:10183000F307A0F42E1B3F0B2817390778F0AC01F3
:101840004E5F5F4F2417350748F04E0F5F1F5093D0
:101850001102409310028193919302C0E0E0F0E006
:10186000CF01DF91CF911F910F910895CF93DF9317
:10187000009709F481C0FC01329713821282A09173
:101880001202B0911302109781F420813181820FEE
:10189000931F20911002309111022817390751F53A
:1018A000F0931102E093100267C0ED0120E030E0F8
:1018B000CE17DF0740F44A815B819E014115510537
:1018C000F1F0EA01F5CFD383C28340815181840FC7
:1018D000951FC817D90759F488819981840F951FDE
:1018E0000296918380838A819B81938382832115D1
:1018F000310529F4F0931302E09312023DC0E9018F
:10190000FB83EA8349915991C40FD51FEC17FD075A
:1019100061F480819181840F951F0296E90199837A
:101920008883828193819B838A83E0E0F0E0129632
:101930008D919C911397009719F0FD01DC01F7CF71
:101940008D919C9111979D012E5F3F4F820F931FA8
:1019500020911002309111022817390769F430974D
:1019600029F4109213021092120202C01382128202
:10197000B0931102A0931002DF91CF910895FC0162
:1019800088279927E89421912032E9F3293010F033
:101990002E30C8F32B3241F02D3239F4689404C054
:1019A0000E94F10C820F911D219120532A30C0F327
:1019B0001EF4909581959F4F0895FB01DC0102C0B4
:1019C00005900D9241505040D8F70895BB274A30FA
:1019D00031F4992322F4BDE2909581959F4F0C94A8
:1019E000FA0C7AE0979F902D879F802D910D1124FE
:1019F0000895BB27FB015527AA27880F991FAA1F07
:101A0000A41710F0A41B83955051B9F7A05DAA3319
:101A100008F0A95DA193009779F7B111B1931192E4
:101A2000CB010C94130DDC01FC01672F719177231E
:101A3000E1F7329704C07C916D9370836291AE1789
:101A4000BF07C8F30895EE0FFF1F0590F491E02D36
:101A5000099481E090E0F8940C944F0DFB01DC01B7
:101A600002C001900D9241505040D8F70895FB01FB
:101A7000DC018D91019080190110D9F3990B089523
:101A8000FB01DC014150504048F001900D920020D4
:101A9000C9F701C01D9241505040E0F70895F894F5
:021AA000FFCF76
:101AA20055317255782D333167384347475446775D
:101AB200674633344147316E597135645F324A6E3D
:101AC20000000014028000000000003C02A601D3C6
:101AD2000189020402E201F601696E006F75740069
:0E1AE20070776D00647700617700707500000A
:107E0000112484B714BE81FFF0D085E080938100F7
:107E100082E08093C00088E18093C10086E0809377
:107E2000C20080E18093C4008EE0C9D0259A86E02C
:107E300020E33CEF91E0309385002093840096BBD3
:107E4000B09BFECF1D9AA8958150A9F7CC24DD24C4
:107E500088248394B5E0AB2EA1E19A2EF3E0BF2EE7
:107E6000A2D0813461F49FD0082FAFD0023811F036
:107E7000013811F484E001C083E08DD089C08234E0
:107E800011F484E103C0853419F485E0A6D080C0E4
:107E9000853579F488D0E82EFF2485D0082F10E0AE
:107EA000102F00270E291F29000F111F8ED06801E7
:107EB0006FC0863521F484E090D080E0DECF843638
:107EC00009F040C070D06FD0082F6DD080E0C81688
:107ED00080E7D80618F4F601B7BEE895C0E0D1E017
:107EE00062D089930C17E1F7F0E0CF16F0E7DF06D8
:107EF00018F0F601B7BEE89568D007B600FCFDCFD4
:107F0000A601A0E0B1E02C9130E011968C91119780
:107F100090E0982F8827822B932B1296FA010C0160
:107F200087BEE89511244E5F5F4FF1E0A038BF0790
:107F300051F7F601A7BEE89507B600FCFDCF97BE46
:107F4000E89526C08437B1F42ED02DD0F82E2BD052
:107F50003CD0F601EF2C8F010F5F1F4F84911BD097
:107F6000EA94F801C1F70894C11CD11CFA94CF0C13
:107F7000D11C0EC0853739F428D08EE10CD085E9AC
:107F80000AD08FE07ACF813511F488E018D01DD067
:107F900080E101D065CF982F8091C00085FFFCCF94
:107FA0009093C60008958091C00087FFFCCF809118
:107FB000C00084FD01C0A8958091C6000895E0E648
:107FC000F0E098E1908380830895EDDF803219F02E
:107FD00088E0F5DFFFCF84E1DECF1F93182FE3DFCA
:107FE0001150E9F7F2DF1F91089580E0E8DFEE27F6
:047FF000FF270994CA
:027FFE00040479
:0400000300007E007B
:00000001FF
