:100000000C94F8010C9420020C9420020C94BF076D
:100010000C94BF070C94BF070C9420020C94200290
:100020000C9420020C9420020C9420020C942002C8
:100030000C9420020C9420020C9420020C942002B8
:100040000C941D070C9420020C948D070C946707E8
:100050000C9420020C9420020C9420020C94200298
:100060000C9420020C94200200407A10F35A00A055
:10007000724E18090010A5D4E80000E87648170071
:1000800000E40B54020000CA9A3B000000E1F505B1
:10009000000080969800000040420F000000A086FB
:1000A00001000000102700000000E803000000002D
:1000B0006400000000000A000000000001000000D1
:1000C00000002C76D888DC674F0823DFC1DFAE59EB
:1000D000E1B1B796E5E3E453C63AE651997696E87E
:1000E000E6C28426EB898C9B62ED407C6FFCEFBC02
:1000F0009C9F40F2BAA56FA5F490055A2AF75C932D
:100100006B6CF9676DC11BFCE0E40D47FEF520E662
:10011000B500D0ED902E0300943577050080841E45
:10012000080000204E0A000000C80C333333330FA0
:10013000986E12831141EF8D2114893BE65516CF3D
:10014000FEE6DB18D1844B381BF77C1D901DA4BB49
:10015000E424203284725E228100C9F124ECA1E5FE
:100160003D275D2000626C6E6B696E66007665727D
:1001700000312E302E3100682D62656174003435F7
:1001800000627566662D696E0032353600646576EC
:100190000041726475696E6F20556E6F00637075F3
:1001A0000041546D6567613332385000636F6E00F3
:1001B00053747265616D006275696C64004E6F7690
:1001C00020323520323032312031343A30363A3331
:1001D000380000000D0A202020205F5F5F20205F94
:1001E0005F202020202020202020205F5F0D0A207B
:1001F00020202F205F20292F202F5F205F5F5F5F4F
:100200005F20202F202F5F5F0D0A20202F205F20EE
:10021000202F202F202F2F202F205F205C2F202009
:10022000275F2F0D0A202F5F5F5F5F2F5F2F5C5FBF
:100230002C202F5F2F2F5F2F5F2F5C5F5C0D0A201C
:10024000202020202020202F5F5F5F2F2076312E5E
:10025000302E31206F6E2041726475696E6F2055AB
:100260006E6F0D0A0000000000240027002A0043E2
:100270006F6E6E656374696E672E2E2E006D732926
:100280002E005265616479202870696E673A2000FB
:100290000000000800020100000304070000000045
:1002A00000000000940394039403940394039403C4
:1002B0009403940394039403940394039403940386
:1002C0009403940394039403940394039403940376
:1002D0009403940394039403940394039403940366
:1002E000940394039303930393039303930393035C
:1002F000930393039303930393039303930393034E
:10030000930393039303930393039303930393033D
:10031000930393039303930393039303930393032D
:1003200093039303496E76616C6964204857206398
:100330006D643A20005365727665723A200052650A
:10034000646972656374696E6720746F200052651A
:10035000616479005061636B657420746F6F206213
:1003600069673A2000436F6E6E6563742066616949
:100370006C65642E20636F64653A2000496E766177
:100380006C6964206175746820746F6B656E004CD5
:100390006F67696E2074696D656F7574004865617B
:1003A0007274626561742074696D656F75740000A4
:1003B000000000230026002900000000002500287E
:1003C000002B0004040404040404040202020202D8
:1003D0000203030303030301020408102040800109
:1003E0000204081020010204081020006213BD104E
:1003F00011241FBECFEFD8E0DEBFCDBF11E0A0E0DB
:10040000B1E0E2EEF5E302C005900D92A638B10727
:10041000D9F724E0A6E8B1E001C01D92A430B207EC
:10042000E1F711E0C7EFD1E004C02197FE010E947F
:10043000A91AC63FD107C9F70E94D9100C94E41A33
:100440000C940000CF92DF92EF92FF92CF93DF9354
:10045000B091B903882311F0AB2F01C0A0E08091C7
:10046000BA0390E0880F991F81559C4FC090BF033D
:10047000D090C003E090C103F090C20320E030E0D0
:10048000FC01C591D491E881EB23A90160E070E003
:10049000EA130CC02F5F3F4F4C155D056E057F05BD
:1004A00078F33FEF2FEF8FEF9FEF03C0322F252F11
:1004B000CB01632F722FDF91CF91FF90EF90DF90F0
:1004C000CF9008953FB7F8948091CF019091D001DB
:1004D000A091D101B091D20126B5A89B05C02F3FB4
:1004E00019F00196A11DB11D3FBFBA2FA92F982F5A
:1004F0008827820F911DA11DB11DBC01CD0142E0D5
:10050000660F771F881F991F4A95D1F70895CF92DC
:10051000DF92EF92FF920F931F93CF93DF936C01C3
:100520007A018B01C0E0D0E0CE15DF0581F0D80163
:100530006D918D01D601ED91FC910190F081E02D3E
:10054000C6010995892B11F02196EECF7E01C701D6
:10055000DF91CF911F910F91FF90EF90DF90CF909F
:100560000895FC01538D448D252F30E0842F90E0B9
:10057000821B930B541710F0CF960895019708959E
:10058000FC01918D828D981761F0828DDF01A80F9B
:10059000B11D5D968C91928D9F5F9F73928F90E0BD
:1005A00008958FEF9FEF0895FC01918D828D98172C
:1005B00031F0828DE80FF11D858D90E008958FEF69
:1005C0009FEF0895FC01918D228D892F90E0805C32
:1005D0009F4F821B91098F739927089583ED91E0B6
:1005E0000E94E20221E0892B09F420E0822F089585
:1005F000FC01848DDF01A80FB11DA35ABF4F2C91C0
:10060000848D90E001968F739927848FA689B7898E
:100610002C93A089B1898C91837080648C93938D85
:10062000848D981306C00288F389E02D80818F7D28
:1006300080830895EF92FF920F931F93CF93DF93E0
:10064000EC0181E0888F9B8D8C8D981305C0E88923
:10065000F989808185FD26C0F62E0B8D10E00F5F95
:100660001F4F0F731127E02E8C8DE8120CC00FB6B0
:1006700007FCFACFE889F989808185FFF5CFCE01A3
:100680000E94F802F1CF8B8DFE01E80FF11DE35AB5
:10069000FF4FF0829FB7F8940B8FEA89FB89808126
:1006A00080620AC09FB7F894EE89FF896083E88969
:1006B000F98980818370806480839FBF81E090E0AE
:1006C000DF91CF911F910F91FF90EF900895CF93FD
:1006D000DF93EC01888D8823C9F0EA89FB8980814A
:1006E00085FD05C0A889B9898C9186FD0FC00FB61C
:1006F00007FCF5CF808185FFF2CFA889B9898C915D
:1007000085FFEDCFCE010E94F802E7CFDF91CF91B8
:10071000089580E090E0892B29F00E94EE0281117B
:100720000C9400000895089508952091C801309117
:10073000C9012817390771F49091C6018091C7014A
:10074000981741F0E091C601F0E0EA57FE4F808132
:1007500090E008958FEF9FEF08951F93CF93DF935D
:10076000DC015C968D919C915D97009739F421E0B6
:1007700030E013963C932E9312973BC05196ED9127
:10078000FC91529750962C915097322F30951FB76D
:100790005E964C915E97742F727041FD6095F8944F
:1007A0004081772311F0422B01C043234083EC01A9
:1007B0002197F1F748E0508160FF02C0522B01C041
:1007C00053235083EC012197F1F76695415099F737
:1007D0008081772319F08323808302C0282B208314
:1007E0001FBF5C968D919C915D970197F1F781E019
:1007F00090E0DF91CF911F9108952091C801309131
:10080000C9012817390771F48091C7012091C601E9
:1008100090E0805C9F4F821B910960E470E00E9431
:10082000541A089580E090E008952091C801309115
:10083000C90128173907B9F49091C6018091C70101
:10084000981789F0E091C601F0E0EA57FE4F8081E9
:100850002091C60130E02F5F3F4F2F733327209345
:10086000C60190E008958FEF9FEF089580E090E03B
:10087000089508950E94BE1A833081F028F48130D3
:1008800099F08230A1F008958730A9F08830B9F04E
:100890008430D1F4809180008F7D03C080918000EE
:1008A0008F7780938000089584B58F7702C084B5D8
:1008B0008F7D84BD08958091B0008F7703C08091B3
:1008C000B0008F7D8093B00008951F93CF93DF9386
:1008D000282F30E0F901E057FD4F8491F901E952EA
:1008E000FC4FD491F901ED53FC4FC491CC23C1F0DE
:1008F000162F81110E943C04EC2FF0E0EE0FFF1F39
:10090000E754FC4FA591B4919FB7F894111104C01E
:100910008C91D095D82302C0EC91DE2BDC939FBF45
:10092000DF91CF911F910895CF93DF9390E0FC0169
:10093000E952FC4F2491FC01ED53FC4F8491882334
:1009400061F190E0880F991FFC01EB59FD4FC591B3
:10095000D491FC01E754FC4FA591B491611109C0F9
:100960009FB7F8948881209582238883EC912E2369
:100970000BC0623061F49FB7F8948881322F3095B4
:1009800083238883EC912E2B2C939FBF06C08FB7B7
:10099000F894E8812E2B28838FBFDF91CF910895A3
:1009A0008F929F92AF92BF92CF92DF92EF92FF927F
:1009B0006B017C010E9462024B015C01C114D104F5
:1009C000E104F104F1F00E946202DC01CB0188191C
:1009D0009909AA09BB09883E9340A105B10570F3A6
:1009E00021E0C21AD108E108F10888EE880E83E000
:1009F000981EA11CB11CC114D104E104F10419F723
:100A0000DDCFFF90EF90DF90CF90BF90AF909F90A1
:100A10008F9008952FB7F8946091CB017091CC011D
:100A20008091CD019091CE012FBF08952F923F92DA
:100A30004F925F927F928F929F92AF92BF92CF928E
:100A4000DF92EF92FF920F931F93CF93DF9300D02B
:100A500000D01F92CDB7DEB77C01762E6A01490126
:100A6000DC01ED91FC918281882309F4CAC0862FB4
:100A70008D7F09F4C1C0B6E06B1709F4BDC0EDE18C
:100A80006E1709F4B9C0D70157968D919C9158976C
:100A9000019709F0B6C0452BA1F4F701C488D588A9
:100AA000C114D10471F482899389019619F0938B52
:100AB000828B04C081E090E0938B828BF701C28827
:100AC000D38884EF870D8930D8F5D7011A964D91D8
:100AD0005D916D917C911D9716968D919D910D90D4
:100AE000BC91A02D84179507A607B70710F4DB016A
:100AF000CA011C012D01E2E42E0E311C411C511CC7
:100B00000E940A05A2019101261B370B480B590BC5
:100B100057FD0EC0C7010E94B40A0E940A05A20137
:100B20009101261B370B480B590B57FFF3CF08C019
:100B3000D70156968C91811103C0C7010E94B40A57
:100B40008114910411F0580102C0A12CB12CB5E020
:100B5000AB0EB11C7982DC24CD24DC24DB82CA827A
:100B6000902F812F9D838C83D701ED91FC91808103
:100B70009181DC01ED91FC910280F381E02D45E053
:100B800050E0BE016F5F7F4F099560E070E0CB01E0
:100B90000E94D0047720C9F001151105B1F0D701EA
:100BA000ED91FC9180819181DC01ED91FC910280BD
:100BB000F381E02DA801B40109950B5F1F4F60E0A0
:100BC00070E0CB010E94D00402C005E010E0A01646
:100BD000B10641F0F701108E178A0190F081E02DE7
:100BE00012820FC00E940A05D7011A966D937D9359
:100BF0008D939C931D9705C0C114D10409F0A0CF1B
:100C00004CCF0F900F900F900F900F90DF91CF91DE
:100C10001F910F91FF90EF90DF90CF90BF90AF901A
:100C20009F908F907F905F904F903F902F9008956E
:100C3000CF92DF92EF92FF920F931F93CF93DF93A8
:100C4000CDB7DEB7C054D1400FB6F894DEBF0FBEAB
:100C5000CDBF0E940A050091BB031091BC032091F7
:100C6000BD033091BE036B017C01C01AD10AE20AB8
:100C7000F30A40EDC41647E0D406E104F10418F489
:100C80008091C303CAC06093BB037093BC0380937D
:100C9000BD039093BE031092B6031092B503109259
:100CA000B4031092B3031092B20362E08091B703D1
:100CB0000E94940461E070E080E090E00E94D00423
:100CC00061E08091B7030E94940460E08091B703D3
:100CD0000E9465048091B8038551823028F48BE22C
:100CE00091E10197F1F706C064E170E080E090E0E7
:100CF0000E94D00462E08091B7030E949404809126
:100D0000C40390E08230910538F0880F991F880F56
:100D1000991F05970197F1F7F89480E00E9422024D
:100D20006F3F7F4F8F4F9F4F21F41092C3037894F2
:100D300041C081E00E9422026F3F7F4F8F4F9F4F43
:100D4000A1F38E010F5F1F4F6E012FEBC21A2EEF22
:100D5000D20A780180E00E942202F7016083718349
:100D60008283938381E00E942202F701648375836A
:100D700086839783F8E0EF0EF11CEC14FD0451F725
:100D8000789420E030E0F801C080D180E280F380E8
:100D90004481558166817781FFEFCF16DF06EF062C
:100DA000FF0631F04F3F8FEF58076807780721F4AF
:100DB0001092C30380E031C0F90183E0F595E79517
:100DC0008A95E1F7EE54FC4F8081880FC416D50652
:100DD000E606F70608F4816080832F5F3F4F085FC7
:100DE0001F4F2832310579F62091B60330E040914B
:100DF000B2038091B30390E0840F911D4091B4033E
:100E0000840F911D4091B503840F911D99272817D8
:100E1000390771F681E08093C303C05CDE4F0FB6E3
:100E2000F894DEBF0FBECDBFDF91CF911F910F9120
:100E3000FF90EF90DF90CF9008951F920F920FB622
:100E40000F9211242F933F938F939F93AF93BF9350
:100E50008091CB019091CC01A091CD01B091CE01B8
:100E60003091CA0123E0230F2D3720F40196A11DF4
:100E7000B11D05C026E8230F0296A11DB11D2093C8
:100E8000CA018093CB019093CC01A093CD01B09384
:100E9000CE018091CF019091D001A091D101B0916C
:100EA000D2010196A11DB11D8093CF019093D00175
:100EB000A093D101B093D201BF91AF919F918F9137
:100EC0003F912F910F900FBE0F901F9018951F927A
:100ED0000F920FB60F9211242F933F934F935F936E
:100EE0006F937F938F939F93AF93BF93EF93FF93F2
:100EF00083ED91E00E94F802FF91EF91BF91AF91D5
:100F00009F918F917F916F915F914F913F912F9121
:100F10000F900FBE0F901F9018951F920F920FB653
:100F20000F9211242F938F939F93EF93FF93E09150
:100F3000E301F091E4018081E091E901F091EA019F
:100F400082FD12C090818091EC018F5F8F732091A0
:100F5000ED01821751F0E091EC01F0E0ED52FE4F0F
:100F6000958F8093EC0101C08081FF91EF919F915B
:100F70008F912F910F900FBE0F901F9018951F9279
:100F80000F920FB60F9211242F933F934F935F93BD
:100F90006F937F938F939F93AF93BF93EF93FF9341
:100FA000E091C801F091C901309709F451C0968DC4
:100FB000A685B785858591FF04C09C91892329F476
:100FC00047C09C91892309F043C0A389B4899C91AF
:100FD0008589809589238C93868997890197F1F774
:100FE000608D718DA685B785558538E020E0CB01F1
:100FF0000197F1F7822F90E095958795282F4C91D6
:10100000452309F02068315091F7868D81FD2095A8
:101010008091C70190E001968F7399273091C601A6
:10102000381749F0A091C701B0E0AA57BE4F2C93E2
:101030008093C70103C0868D8160868F828D938DDA
:101040000197F1F7A389B4899C918589892B8C93A9
:10105000FF91EF91BF91AF919F918F917F916F9190
:101060005F914F913F912F910F900FBE0F901F9066
:1010700018958F929F92AF92BF92CF92DF92EF928C
:10108000FF920F931F93CF93DF936C018B017B0132
:10109000E40EF51E0E940A054B015C01E801CE1525
:1010A000DF05D8F40E940A05DC01CB0188199909F3
:1010B000AA09BB0980379741A105B10570F4D60193
:1010C0008D919C91DC01ED91FC910284F385E02DE2
:1010D000099597FDE4CF8993E2CFCE01801B910B58
:1010E000DF91CF911F910F91FF90EF90DF90CF9004
:1010F000BF90AF909F908F900895CF92DF92EF9224
:10110000FF920F931F93CF93DF93CDB7DEB7C55AEE
:10111000D1090FB6F894DEBF0FBECDBF6C0145E616
:1011200050E06DE671E0CE0101960E94EF15CE0110
:101130008A599F4F7C0105E610E09E012F5F3F4FCB
:1011400040E050E061E1C6010E941605CB55DF4F3B
:101150000FB6F894DEBF0FBECDBFDF91CF911F91C8
:101160000F91FF90EF90DF90CF9008950F931F9312
:10117000CF93DF93FC01228133816115710561F406
:1011800080819181A9014F5F5F4F53834283FC01AE
:10119000E20FF31F10821DC0DB010D900020E9F764
:1011A0008D01061B170BA801420F531F84819581E7
:1011B0008417950770F0EF0180819181A801820F5B
:1011C000931F0E94C31A4A815B81400F511F5B83AA
:1011D0004A83DF91CF911F910F9108950F931F9331
:1011E000CF93DF93CDB7DEB762970FB6F894DEBF2B
:1011F0000FBECDBF8C01CB014AE0BE016F5F7F4FB8
:101200000E94F815BE016F5F7F4FC8010E94B608AB
:1012100062960FB6F894DEBF0FBECDBFDF91CF91BF
:101220001F910F910895CF92DF92EF92FF920F934B
:101230001F93CF93DF93CDB7DEB7C75AD1090FB64F
:10124000F894DEBF0FBECDBF8C016A017B01CE01D9
:101250000196CE55DF4F99838883C25AD040CC5532
:10126000DF4F19821882C45AD04080E890E0CA55F6
:10127000DF4F99838883C65AD0406BE471E0CE017A
:101280008E559F4F0E94B608B801CE018E559F4FD4
:101290000E94EE088E010F571F4F23E045E0C70163
:1012A000B6010E946914B801CE018E559F4F0E946D
:1012B000B608CC55DF4F08811981C45AD04001507F
:1012C0001109CE55DF4F28813981C25AD040E12C17
:1012D000F12C40E050E064E185EC93E00E941605BB
:1012E000C955DF4F0FB6F894DEBF0FBECDBFDF91FB
:1012F000CF911F910F91FF90EF90DF90CF900895C5
:101300008F929F92AF92BF92CF92DF92EF92FF9215
:10131000CF930E9418068823D1F18091B8038B30B7
:10132000B0F18D30A8F08551823088F56091B2031C
:101330007091B30376276727762780E090E00E94BC
:1013400020192DEC3CEC4CEC5DE30E94AE191CC066
:101350006091B30370E080E090E00E9422192DECD0
:101360003CEC4CEC5DE30E94AE196B017C0160919A
:10137000B20370E080E090E00E9422199B01AC0172
:10138000C701B6010E94B4184B015C0106C0812C54
:10139000912C20ECA22E2FE7B22E0E941806882353
:1013A00009F48AC08091B8038C3009F448C018F45D
:1013B0008B30D1F06BC08551823008F067C0C0918E
:1013C000B4036C2F6F7770E0762F66278091B5039A
:1013D000682B80E090E00E9420192DEC3CEC4CEC56
:1013E0005DE30E94AE1949C06091B40370E080E0F3
:1013F00090E00E9420196B017C01C091B503C7FFEA
:101400000AC09B01AC0160E070E080E89FEB0E94A5
:10141000B3186B017C016C2F6F7070E080E090E07E
:101420000E9422192DEC3CEC4CEC5DE30E94AE19BD
:10143000A70196010E94B4186B017C012DC0C091D8
:10144000B4036091B5036F7070E080E090E00E949B
:1014500022192DEC3CEC4CEC5DE30E94AE196B01C3
:101460007C016C2F70E080E090E00E9420199B01CD
:10147000AC01C701B6010E94B4186B017C01C7FF23
:101480000BC0F7FAF094F7F8F09406C0C12CD12CF9
:1014900080ECE82E8FE7F82EA5019401C501B40178
:1014A0000E941B1A811108C0A7019601C701B6014D
:1014B0000E941B1A882369F08EE491E0CF91FF907F
:1014C000EF90DF90CF90BF90AF909F908F900C9453
:1014D0009D10B501A40182E090E00E94130964E62A
:1014E00070E080E090E00E94D004B701A60181E0A6
:1014F00090E0CF91FF90EF90DF90CF90BF90AF90B2
:101500009F908F900C941309DC01ED91FC91119741
:10151000309761F012962D913C911397E217F307E3
:1015200028F401900020E9F7ED93FC930895FC0165
:1015300080819181009739F022813381821793074E
:1015400010F40C94AA1580E090E008956BE58EED00
:1015500093E00E94AD030E940A054AE00E944E10EB
:1015600082E691E00C9421102F923F924F925F926D
:101570006F927F928F929F92AF92BF92CF92DF92A3
:10158000EF92FF920F931F93CF93DF93CDB7DEB708
:10159000A3970FB6F894DEBF0FBECDBF6C012DB779
:1015A0003EB73BA32AA360E070E0CB010E94D004C9
:1015B000D60157968D919C915897029709F41BC1BB
:1015C00056968C9156978F5F56968C935697549655
:1015D0002D913C915597232B09F003C1833008F0DE
:1015E00000C1D601ED91FC9172807720B1F0FE012F
:1015F00031965F0150E1452E512CD601ED91FC91C1
:1016000080819181DC01ED91FC910084F185E02DD8
:101610000995181619060CF4F0C00E940A052B0152
:101620003C01F60100811181D80112969C9012971D
:101630008789908D8130910509F06CC0911009C0A7
:1016400046865786608A718A108E178A12961C9277
:10165000CAC0F60186819781A085B185A301920158
:10166000281B390B4A0B5B0BDA01C901893136EFB4
:101670009307A105B10578F00E94A60A8DE993E0D1
:101680000E948F10D60158961C921E925797ED918A
:10169000FC91128264C0893C9F4AA105B10598F46F
:1016A000F60182859385A485B585A3019201281B47
:1016B000390B4A0B5B0BDA01C901893C9F4AA10532
:1016C000B10508F48EC0F60186859785A089B18999
:1016D000A3019201281B390B4A0B5B0BDA01C901EC
:1016E00081379741A105B10508F47BC0E12CF12CAD
:1016F00000E010E020E030E040E050E066E0C601AD
:101700000E941605D6011E964D925D926D927C92B6
:10171000519769C0892B09F064C0F60186859785C9
:10172000A089B189481A590A6A0A7B0A9920C9F026
:10173000F1E74F16F7E15F066104710408F451C048
:101740000E94A60A8FE893E00E948F10D601ED91C7
:10175000FC911197128258961C921E925797912CC9
:1017600042C0B9E84B16B3E15B0661047104C8F1ED
:10177000F80112820E94A60A8FE692E00E948F1062
:10178000D8018D919C91DC01ED91FC910680F7814F
:10179000E02D099581E0F801828381E090E0D60197
:1017A00053969C938E93529712962D913C9113973A
:1017B000F90101900020E9F731978F01021B130B0B
:1017C000E12CF12C41E050E06DE1C6010E941605CC
:1017D000F60182859385A485B58586879787A08B3A
:1017E000B18B99249394D60156968C91569781503B
:1017F00056968C9305C4912C03C445E050E0BE017D
:10180000695E7F4FF601808191810E9439080097BF
:1018100009F487C3059709F07BC0888D998D9827B7
:1018200089279827998F888F0A8D1B8D102701276C
:1018300010271B8F0A8F892B09F46AC08F898111A9
:101840006DC00E940A05F6016683778380879187C1
:101850002789308D8A8D9B8D232B09F05BC0288DC5
:10186000398D2130310509F055C089309105C1F11C
:10187000883C910519F0049709F040C00E94A60A1F
:1018800082E892E00E942110F60186819781A0856E
:10189000B1850685178520893189BC01CD01601B82
:1018A000710B820B930B4AE00E944E108DE792E081
:1018B0000E948F10F60186819781A085B185868769
:1018C0009787A08BB18B21E030E0308F278BC6014A
:1018D0000E947D0860E070E0CB010E94D00421C32B
:1018E0000E94A60A8CE793E00E948F1083E090E0AC
:1018F000D60158969C938E9357970AC00E94A60AC9
:1019000085E693E00E9421108A8D9B8D0E94AB108A
:10191000912C0AC3059709F070CEFACF0130B1E0DF
:101920001B0790F00E94A60A84E593E00E94211014
:101930008A8D9B8D0E94AB10F601108E178A019044
:10194000F081E02D1282EDC22DB73EB739A328A356
:10195000C80101964DB75EB7481B590B0FB6F894F6
:101960005EBF0FBE4DBF8DB79EB701967C01A8012B
:10197000BC01D6018D919C910E9439088017910776
:1019800009F0C4C2EA8DFB8DEE0DFF1D10820E948E
:101990000A05F60166837783808791878F89813175
:1019A00009F48AC248F4863071F18F3009F4ADC071
:1019B000823009F0A3C20DC08D3159F020F484317A
:1019C00009F4A3C09BC2893259F1873309F488C254
:1019D00095C2D60157968D919C915897892B99F471
:1019E0000E94A60A8EE493E00E948F1021E030E06E
:1019F000F601308F278BC6010E947D0860E070E001
:101A0000CB010E94D004488D598DE12CF12C08ECBB
:101A100010E020E030E060E0C6010E94160578C2C8
:101A200084819581892B39F480E490E00E948914A7
:101A3000F601958384830A8D1B8D0E0D1F1DFA827E
:101A4000E9821C830B83E016F10608F05FC240E4D4
:101A500050E0B701D60114968D919C9115970E9484
:101A6000D51AD6011496ED91FC91159717AEC501C4
:101A70000E94840AFC01808191818017910778F48B
:101A800089819A81009731F02B813C8182179307DD
:101A900008F44FC260E070E0CB018B0102C000E5AA
:101AA00010E00E94A60A8EE393E00E942110D60166
:101AB00014968D919C9115970E943C106AE38EEDCF
:101AC00093E00E94AD03C8010E94AB10D601ED91D6
:101AD000FC911197128258961C921E9257970E9461
:101AE0000A05DC01CB0188589341A109B109F6012F
:101AF00082879387A487B58786839783A087B187DA
:101B000086879787A08BB18B03C2888D998DD6016C
:101B100055969C938E9354972A8C3B8C4701820C4C
:101B2000931CFD8EEC8E9F8E8E8EE814F90408F0C7
:101B3000BFC1F70100811181CE014C960E94840A39
:101B4000DC018D919C918815990508F0B1C18C8DAF
:101B50009D8DFC012081213459F401960E94AA1523
:101B6000863091050CF036C14EE0642E680E05C03B
:101B7000CE014C960E94970A682E0637F2E71F079F
:101B800009F42FC158F4013632E7130709F477C07E
:101B9000043642E7140709F06FC116C0043687E720
:101BA000180709F454C0063797E7190709F43AC132
:101BB0000136174709F064C1A3C0043642E7140791
:101BC00009F05AC166246A94BA8AA98A1C8A1B8AB7
:101BD0005E8A4D8A69E771E0CE0141960E94B6089F
:101BE000062D10E0B801CE0141960E94EE08F801E2
:101BF000E057FD4F8491F801E952FC4FF490F80151
:101C0000ED53FC4F0491002399F081110E943C0494
:101C1000E02FF0E0EE0FFF1FE155FC4FA591B491CE
:101C2000EC91FE2261E070E009F054C060E052C027
:101C300060E070E04FC0073722E7120708F47CC16C
:101C4000043687E7180709F0E6C066246A94CE01D7
:101C50004C960E94840ADC018D919C91881599050F
:101C600008F026C161E0862D0E949404CE014C96B6
:101C70000E94970A61E0892B09F062C0A9C0BA8A64
:101C8000A98A1C8A1B8A5E8A4D8A6CE771E0CE01A4
:101C900041960E94B608662D70E0CE0141960E94E2
:101CA000EE08BDE0B61510F4E2EF6E0E862D8770DB
:101CB000806480937C0080917A00806480937A00B5
:101CC00080917A0086FDFCCF609178008091790048
:101CD00070E0782BCE0141960E94EE080B891C899A
:101CE0000150110929893A89E12CF12C40E050E09A
:101CF00064E1DBC00136174709F0C2C066246A946C
:101D0000CE014C960E94840ADC018D919C9188152D
:101D1000990508F0CDC061E0862D0E949404CE01A3
:101D20004C960E94970A8C0161E0862D0E949404D3
:101D30000115110509F44CC00F3F110529F461E0AC
:101D4000862D0E946504B4C0E62DF0E0E057FD4FFB
:101D5000E491E330F9F048F4E130B9F0E230A1F574
:101D600084B5806284BD08BDA3C0E730E9F0E830E7
:101D700019F1E43049F58091800080628093800001
:101D800010938B0000938A0093C084B5806884BD53
:101D900007BD8EC080918000806880938000109382
:101DA00089000093880084C08091B000806880938F
:101DB000B0000093B3007CC08091B000806280933B
:101DC000B0000093B40074C0003811050CF0B7CF18
:101DD00060E0B6CF0637F2E71F0709F02CCF662484
:101DE0006A946982BFE1B61508F462C0E62DF0E09E
:101DF000EE0FFF1FEC55FD4F259134912115310554
:101E000009F456C0E3E024393E0709F451C0C50186
:101E1000F90109954DC0063797E7190709F06ACF10
:101E200066246A94CE014C960E94840A8C8D9D8D06
:101E30009C012E193F09221A330A9A8389833C8216
:101E40002B823E822D82698AFFE1F61588F1E62D0C
:101E5000F0E0EE0FFF1FEC51FD4F2591349121155D
:101E6000310531F143E02339340711F1B501CE01D9
:101E70004196F90109951CC000371D4609F498C028
:101E80000E94A60A84E293E00E942110C7010E94EA
:101E90009D10D60154964D915C915597E12CF12CF3
:101EA00002E010E020E030E060E0C6010E9416058C
:101EB000F601158A148A2CC08A8D9B8D8E0D9F1D6C
:101EC000FA82E9829C838B83E816F90608F5C5013E
:101ED0000E94840AD60155961C921E92549718C0EF
:101EE0008A8D9B8D892BA1F00E94A60A85E393E041
:101EF0000E942110C7010E949D100AC0F601108E99
:101F0000178A0190F081E02D128202C0912C01C04D
:101F1000972C28A139A10FB6F8943EBF0FBE2DBF54
:101F200001C0972C911069CBD601ED91FC911282E2
:101F30005ACC0E94C815B1CD013632E7130709F01B
:101F40003CCEBA8AA98A1C8A1B8A5E8A4D8A6CE7B3
:101F500071E0CE0141960E94B6086FEF70E0CE01AD
:101F600041960E94EE0866246A949ECEFC01208170
:101F7000213421F501960E94AA158630910524F599
:101F80003EE0F32EF80ECE014C960E94840A0C8D92
:101F90001D8D6EE671E0C8010E94CC1A892BB9F440
:101FA00060E08F2D0E949404CE014C960E94840A1A
:101FB0008C8D9D8D88159905C8F27ACFCE014C96EF
:101FC0000E94970AF82EDFCFFF24FA94DCCF61E756
:101FD00071E0C8010E94CC1A892B39F065E771E0E5
:101FE000C8010E94CC1A892B11F461E0DACF6FE7A7
:101FF00071E0C8010E94CC1A892BB1F662E0D1CF02
:10200000892DEAA1FBA10FB6F894FEBF0FBEEDBF6C
:10201000A3960FB6F894DEBF0FBECDBFDF91CF9170
:102020001F910F91FF90EF90DF90CF90BF90AF90F6
:102030009F908F907F906F905F904F903F902F90E8
:1020400008950F931F93CF93DF938C01C0E0D0E0EE
:10205000F801EC0FFD1F6491662341F08EED93E0D3
:102060000E94AD03892B11F02196F2CFCE01DF91B2
:10207000CF911F910F910895009769F0FC01019095
:102080000020E9F73197AF01481B590BBC018EEDD9
:1020900093E00C94870280E090E008958F929F92E5
:1020A000AF92BF920F931F93CF93DF93CDB7DEB75D
:1020B000A1970FB6F894DEBF0FBECDBF19A2423074
:1020C00008F44AE08E010F5D1F4F842E912CA12C45
:1020D000B12CA50194010E94681AE62FB901CA012A
:1020E00001501109EA3014F4E05D01C0E95CD80147
:1020F000EC93232B242B252B61F7C8010E943C1065
:10210000A1960FB6F894DEBF0FBECDBFDF91CF9181
:102110001F910F91BF90AF909F908F900895CF9394
:10212000DF930E942110EC0182E891E00E943C10B4
:102130008C0F9D1FDF91CF910895CF93DF930E9465
:102140003C10EC0182E891E00E943C108C0F9D1F36
:10215000DF91CF910895CF93DF93BC0180E090E0B1
:102160004AE00E944E10EC0182E891E00E943C108F
:102170008C0F9D1FDF91CF9108958DE391E0909397
:10218000DF038093DE038091C8019091C9018E5DC9
:10219000934071F4E091F103F091F203908180910A
:1021A000F3038095892380831092C9011092C8019E
:1021B0000895789484B5826084BD84B5816084BDBF
:1021C00085B5826085BD85B5816085BD80916E00D5
:1021D000816080936E001092810080918100826006
:1021E0008093810080918100816080938100809143
:1021F00080008160809380008091B1008460809332
:10220000B1008091B00081608093B00080917A002D
:10221000846080937A0080917A00826080937A0053
:1022200080917A00816080937A0080917A00806842
:1022300080937A001092C1001092F9031092F80373
:102240001092F7031092F6031092F5031092F40324
:102250008DE991E09093FB038093FA039091EA0358
:10226000963108F058C02DEB30E03093F503209301
:10227000F4032BE931E03093F7032093F6032CE2CB
:1022800031E03093F9032093F803409168009830CF
:1022900058F031E09E3008F430E021E0822F01C098
:1022A000880F3A95EAF701C084E0842B8093680098
:1022B000983038F09E3040F0963148F020E030E021
:1022C00008C02DE630E005C02BE630E002C02CE669
:1022D00030E03093F2032093F103983030F481E042
:1022E00001C0880F9A95EAF70EC0292F30E09E3082
:1022F00018F42850310902C02E50310981E001C084
:10230000880F2A95EAF78093F3038091FA0390915E
:10231000FB030197F1F78091F8039091F903892B62
:1023200049F1E091C801F091C90123E0EE3DF207C7
:1023300009F1309739F0A389B4899C9185898095FA
:1023400089238C938091FC038E7F8093FC031092F1
:10235000C7011092C6018EED93E09093C90180935E
:10236000C801E091F103F091F20390818091F303B1
:10237000892B8083E091E301F091E40182E0808386
:10238000E091DF01F091E0011082E091E101F09134
:10239000E2018FEC80831092EB01E091E701F09174
:1023A000E80186E08083E091E501F091E60180811B
:1023B00080618083E091E501F091E6018081886091
:1023C0008083E091E501F091E6018081806880835F
:1023D000E091E501F091E60180818F7D808380E0CE
:1023E00091E09093C8038093C7030E940A05DC0123
:1023F000CB0188589341A109B1098093CF039093F1
:10240000D003A093D103B093D2038093CB039093D6
:10241000CC03A093CD03B093CE038093D3039093CA
:10242000D403A093D503B093D6030E94A60A84EDEB
:1024300091E00E948F10E091C503F091C60383EDF7
:1024400091E091838083E091C503F091C6031282ED
:102450001092DD031092DC030E940A056B017C01DF
:102460008091DC039091DD03019791F00E940A05B1
:10247000DC01CB018C199D09AE09BF09803596445A
:10248000A105B10528F485EC93E00E94B40AE8CFD9
:102490008091DC039091DD030197A9F662E08091C1
:1024A000B7030E9494040E940A05DC01CB01805D01
:1024B0009740A109B1098093BB039093BC03A093FB
:1024C000BD03B093BE0387E38093C4038091B00340
:1024D0009091B10397FF17C00E940A05E0E7F2E070
:1024E00024E1DF01322F1D923A95E9F76083718371
:1024F000828393837496A3E0E03BFA0791F71092EE
:10250000B1031092B0038091B0039091B103409752
:1025100074F4E0E7F2E080E090E024813581232B41
:1025200009F4A5C00196749680319105B1F7222473
:102530002394312C85EC93E00E94B40A0E940A0592
:102540002B013C0100E712E0E8011B8A1A8A8C810A
:102550009D81892B09F43FC0C880D980EA80FB8027
:10256000C301B2016C197D098E099F0989849A847F
:10257000AB84BC84681579058A059B0560F1A501CB
:1025800094010E94681AC501B4010E94441AC60E43
:10259000D71EE81EF91EC882D982EA82FB82898989
:1025A0008823C9F02D853E852115310519F43B8A14
:1025B0002A8A11C08F8598898217930760F43B8A15
:1025C0002A8A0196988B8F878217930720F0E2E082
:1025D000F0E0FB8BEA8B6496F3E0C03BDF0709F089
:1025E000B4CFD80152968D919C915397892BA9F124
:1025F00018968C9118971496ED91FC911597882355
:1026000031F016968D919C911797099501C0099507
:10261000F80182899389029701F58091B003909126
:10262000B103892BD1F084819581892BB1F0D80138
:10263000E4E11D92EA95E9F70E940A05D8016D933D
:102640007D938D939C9313978091B0039091B103E8
:1026500001979093B1038093B0030C5E1F4FB3E0DA
:10266000003B1B0709F0BDCF0E94890363CF24E123
:10267000289FE001299FD00D1124C059DD4F88EE1D
:1026800093E0A0E0B0E089879A87AB87BC8780E8B9
:1026900099E09D838C831F821E8218861E861D866C
:1026A00081E0898B0E940A05688379838A839B83F2
:1026B0008091B0039091B10301969093B103809300
:1026C000B00335CF1092D6011092D50188EE93E079
:1026D000A0E0B0E08093D7019093D801A093D901F6
:1026E000B093DA012BE231E03093D4012093D3018F
:1026F00025EC30E03093E0012093DF0124EC30E062
:102700003093E2012093E10120EC30E03093E401CA
:102710002093E30121EC30E03093E6012093E501C2
:1027200022EC30E03093E8012093E70126EC30E022
:102730003093EA012093E9011092EC011092ED012F
:102740001092EE011092EF011092E1031092E0035B
:102750008093E2039093E303A093E403B093E50333
:102760008DE391E09093DF038093DE031092F503F5
:102770001092F4031092F7031092F6031092F903EB
:102780001092F8031092FB031092FA036091FC037D
:102790006E7F6D7F6093FC036695617081E06827B2
:1027A0008BE00E94650461E08BE00E949404E2EEFD
:1027B000F3E0E491E093EE03EEECF3E0E491F0E07B
:1027C000EE0FFF1FE754FC4F859194919093F00317
:1027D0008093EF0360E08AE00E9494048091FC0300
:1027E00081FD04C061E08AE00E9465048AE0809374
:1027F000EA03E1EEF3E0E491E093EB03EDECF3E0C8
:10280000E491F0E0EE0FFF1FE155FC4F85919491AC
:102810009093ED038093EC031092FE031092FD035E
:102820001092FF038DEF93E09093C6038093C5034E
:102830001092C8031092C7031092CA031092C903E2
:102840001092CB031092CC031092CD031092CE03C2
:102850001092CF031092D0031092D1031092D203A2
:102860001092D3031092D4031092D5031092D60382
:102870001092D8031092D7031092DA031092D90362
:102880001092DB031092DD031092DC0382E0809350
:10289000B7038BE08093B803E9EDF3E0E491E093B4
:1028A000B903E5ECF3E0E491E093BA0380E89EE33A
:1028B000A0E0B0E08093BF039093C003A093C10356
:1028C000B093C2038FEF9FEF9093B1038093B00357
:1028D0000895EF920F931F93CF93DF93E80147FD85
:1028E00002C034E001C034E1042E000C550B57FF48
:1028F00003C0519541955109E32E022F242FAE01BB
:102900000E943A16CE01DF91CF911F910F91EF9067
:1029100008950F931F93CF93DF938230910510F4A6
:1029200082E090E0E0910204F091030420E030E0C6
:10293000A0E0B0E0309719F140815181028113810C
:1029400048175907C8F08417950769F4109731F0B4
:1029500012960C93129713961C9327C000930204AF
:102960001093030422C02115310519F042175307B3
:1029700018F49A01BD01EF01DF01F801DBCF211549
:102980003105F9F0281B390B2430310580F48A8198
:102990009B816115710521F0FB019383828304C043
:1029A0009093030480930204FE01329644C0FE011A
:1029B000E20FF31F819391932250310939832883C9
:1029C0003AC02091000430910104232B41F420915E
:1029D00023013091240130930104209300042091BD
:1029E0002101309122012115310541F42DB73EB767
:1029F0004091250150912601241B350BE0910004E4
:102A0000F0910104E217F307A0F42E1B3F0B2817E7
:102A1000390778F0AC014E5F5F4F2417350748F057
:102A20004E0F5F1F509301044093000481939193D4
:102A300002C0E0E0F0E0CF01DF91CF911F910F9154
:102A40000895CF93DF93009709F481C0FC0132977A
:102A500013821282A0910204B0910304109781F4B2
:102A600020813181820F931F209100043091010455
:102A70002817390751F5F0930104E093000467C06B
:102A8000ED0120E030E0CE17DF0740F44A815B81A2
:102A90009E0141155105F1F0EA01F5CFD383C283C0
:102AA00040815181840F951FC817D90759F4888137
:102AB0009981840F951F0296918380838A819B81DF
:102AC000938382832115310529F4F0930304E09365
:102AD00002043DC0E901FB83EA8349915991C40F87
:102AE000D51FEC17FD0761F480819181840F951F3C
:102AF0000296E90199838883828193819B838A83EB
:102B0000E0E0F0E012968D919C911397009719F0F8
:102B1000FD01DC01F7CF8D919C9111979D012E5FF6
:102B20003F4F820F931F209100043091010428171A
:102B3000390769F4309729F41092030410920204C3
:102B400002C013821282B0930104A0930004DF91AB
:102B5000CF910895FC0188279927E894219120328C
:102B6000E9F3293010F02E30C8F32B3241F02D322A
:102B700039F4689404C00E941816820F911D2191A7
:102B800020532A30C0F31EF4909581959F4F0895ED
:102B90001F93FC0199278827BC01E89411911032FA
:102BA000E9F3193010F01E30C8F31B3251F01D321A
:102BB00049F4689406C00E940316610F711D811DBF
:102BC000911D119110531A30B0F33EF490958095F9
:102BD000709561957F4F8F4F9F4F1F910895FB0117
:102BE000DC0102C005900D9241505040D8F7089585
:102BF000BB274A3031F4992322F4BDE290958195A8
:102C00009F4F0C942116592F482F372F262F660FD0
:102C1000771F881F991F660F771F881F991F620FE4
:102C2000731F841F951F660F771F881F991F0895B4
:102C30007AE0979F902D879F802D910D1124089504
:102C4000BB27FB015527AA27880F991FAA1FA41786
:102C500010F0A41B83955051B9F7A05DAA3308F07A
:102C6000A95DA193009779F7B111B1931192CB01AE
:102C70000C946C18A9E0B0E0E0E4F6E10C94821842
:102C80006A01122FB02E2BE3201720F0FF24F394BB
:102C9000F00E02C02CE3F22E0F2D27E0AE014F5FA5
:102CA0005F4F0E949417BC014981842F8970813045
:102CB00031F0E1FC06C0E0FE06C090E205C09DE2F6
:102CC00003C09BE201C090E05E2D507143FF3CC009
:102CD000911102C083E001C084E0811718F4212F14
:102CE000281B01C020E051110BC0F601822F30E2F9
:102CF000882319F031938150FBCFC20ED11C20E004
:102D0000992329F0D6019C93F60131966F01C601F3
:102D10000396E2FE0AC03EE4D6013C9341E41196DC
:102D20004C93119712963C9306C03EE6F601308311
:102D300041E641833283FC01322F40E2332309F420
:102D400042C041933150FACF42FF44C0911102C0BA
:102D500083E001C084E0811718F4212F281B01C0F3
:102D600020E051110BC0F601822F30E2882319F0C8
:102D700031938150FBCFC20ED11C20E0992329F062
:102D8000D6019C93F60131966F01C6010396E2FECF
:102D90000BC039E4D6013C933EE411963C93119765
:102DA00036E412963C9307C039E6F60130833EE6DE
:102DB000318336E63283FC01322F40E2332319F0AF
:102DC00041933150FBCFFC01E20FF11D10828EEFD9
:102DD0009FEFA6C021E030E0911102C020E030E07A
:102DE000161617061CF4FB01319602C0E1E0F0E074
:102DF0002E0F3F1FBB2021F0EB2DF0E0319602C0DB
:102E0000E0E0F0E02E0F3F1FE12FF0E02E173F072C
:102E10001CF4121B212F01C020E08E2D887159F463
:102E2000F601822F30E2882319F031938150FBCFD5
:102E3000C20ED11C20E0992329F0D6019C93F60103
:102E400031966F0151110BC0F601822F90E3882358
:102E500019F091938150FBCFC20ED11C20E00F2DB1
:102E6000060F9A81342F307144FF03C0913309F467
:102E70000150101624F4093018F008E001C001E0F8
:102E8000AB0177FF02C040E050E0FB01E41BF50B13
:102E9000A1E0B0E0AC0FBD1FEA0FFB1F8EE2A82E31
:102EA0004B01801A91080B2D10E011950195110925
:102EB0004F3FBFEF5B0721F4D601AC9211966D0135
:102EC000641775072CF08416950614F4818101C0EF
:102ED00080E3415051093196D60111967D0140178A
:102EE000510724F0D6018C936701E2CF6417750770
:102EF00039F4963320F4953319F4311101C081E38C
:102F0000F6018083F701822F90E2882319F09193D4
:102F10008150FBCFF701E20FF11D108280E090E0BD
:102F20002996ECE00C949E18283008F027E033270F
:102F3000DA01990F311D87FD9160009661057105D9
:102F400039F432602E5F3D9330E32A95E1F708951E
:102F50009F3F30F080387105610509F03C5F3C5FB0
:102F60003D93913008F08068911DDF93CF931F93BC
:102F70000F93FF92EF92192F987F9695E92F9695D0
:102F80009695E90FFF27EE53FF4F99273327EE243D
:102F9000FF24A701E70105900894079428F4360F51
:102FA000E71EF81E491F511D660F771F881F991FC6
:102FB0000694A1F70590079428F4E70EF81E491F20
:102FC000561FC11D770F881F991F661F0694A1F712
:102FD0000590079428F4F80E491F561FC71FD11DEE
:102FE000880F991F661F771F0694A1F70590079415
:102FF00020F4490F561FC71FD81F990F661F771F50
:10300000881F0694A9F784911095177041F0D69502
:10301000C79557954795F794E7941A95C1F7E8E651
:10302000F0E0689415901591359165919591059012
:103030007FE27395E118F10A430B560BC90BD009D7
:10304000C0F7E10CF11E431F561FC91FD01D7EF4AF
:10305000703311F48A95E6CFE894015030F0080FF0
:103060000AF40027021708F4202F2395022F7A3341
:1030700028F079E37D932A95E9F710C07D932A958E
:1030800089F6069497956795379517951794E118E3
:10309000F10A430B560BC90BD00998F023957E918A
:1030A00073957A3308F070E37C932013B8F77E9120
:1030B00070617D9330F0839571E37D9370E32A9581
:1030C000E1F71124EF90FF900F911F91CF91DF91C5
:1030D000992787FD90950895DC01FC01672F719178
:1030E0007723E1F7329704C07C916D9370836291EE
:1030F000AE17BF07C8F308952F923F924F925F9289
:103100006F927F928F929F92AF92BF92CF92DF92F7
:10311000EF92FF920F931F93CF93DF93CDB7DEB75C
:10312000CA1BDB0B0FB6F894DEBF0FBECDBF0994F0
:103130002A88398848885F846E847D848C849B8447
:10314000AA84B984C884DF80EE80FD800C811B8155
:10315000AA81B981CE0FD11D0FB6F894DEBF0FBE84
:10316000CDBFED0108955058BB27AA270E94CB1868
:103170000C9474190E94661938F00E946D1920F0A1
:1031800039F49F3F19F426F40C9463190EF4E0957A
:10319000E7FB0C945D19E92F0E94851958F3BA17C3
:1031A000620773078407950720F079F4A6F50C945D
:1031B000A7190EF4E0950B2EBA2FA02D0B01B90123
:1031C00090010C01CA01A0011124FF27591B99F09D
:1031D000593F50F4503E68F11A16F040A22F232FA9
:1031E000342F4427585FF3CF469537952795A795F9
:1031F000F0405395C9F77EF41F16BA0B620B730BA0
:10320000840BBAF09150A1F0FF0FBB1F661F771F10
:10321000881FC2F70EC0BA0F621F731F841F48F4C5
:10322000879577956795B795F7959E3F08F0B0CF4E
:103230009395880F08F09927EE0F97958795089535
:10324000E89409C097FB3EF4909580957095619540
:103250007F4F8F4F9F4F9923A9F0F92F96E9BB27F6
:103260009395F695879577956795B795F111F8CF72
:10327000FAF4BB0F11F460FF1BC06F5F7F4F8F4FDD
:103280009F4F16C0882311F096E911C0772321F0D3
:103290009EE8872F762F05C0662371F096E8862F6B
:1032A00070E060E02AF09A95660F771F881FDAF7C2
:1032B000880F9695879597F9089597F99F6780E805
:1032C00070E060E008959FEF80EC089500240A9478
:1032D0001616170618060906089500240A941216F1
:1032E0001306140605060895092E0394000C11F424
:1032F000882352F0BB0F40F4BF2B11F460FF04C0D1
:103300006F5F7F4F8F4F9F4F089557FD9058440F29
:10331000551F59F05F3F71F04795880F97FB991F34
:1033200061F09F3F79F087950895121613061406F1
:10333000551FF2CF4695F1DF08C01616170618067E
:10334000991FF1CF86957105610508940895E89459
:10335000BB2766277727CB0197F908950E94C119EB
:103360000C9474190E94661938F00E946D1920F0AF
:10337000952311F00C945D190C94631911240C948D
:10338000A8190E94851970F3959FC1F3950F50E01D
:10339000551F629FF001729FBB27F00DB11D639F07
:1033A000AA27F00DB11DAA1F649F6627B00DA11DAD
:1033B000661F829F2227B00DA11D621F739FB00D53
:1033C000A11D621F839FA00D611D221F749F3327C3
:1033D000A00D611D231F849F600D211D822F762F5C
:1033E0006A2F11249F5750409AF0F1F088234AF039
:1033F000EE0FFF1FBB1F661F771F881F91505040A5
:10340000A9F79E3F510580F00C945D190C94A81902
:103410005F3FE4F3983ED4F3869577956795B7952B
:10342000F795E7959F5FC1F7FE2B880F911D969545
:10343000879597F908950E94201A880B990B089593
:10344000990F0008550FAA0BE0E8FEEF16161706B5
:10345000E807F907C0F012161306E407F50798F01D
:10346000621B730B840B950B39F40A2661F0232B36
:10347000242B252B21F408950A2609F4A140A695B2
:103480008FEF811D811D0895DB018F939F930E9413
:103490008A1ABF91AF91A29F800D911DA39F900D9D
:1034A000B29F900D1124089597FB072E16F40094F7
:1034B00007D077FD09D00E94951A07FC05D03EF48D
:1034C000909581959F4F0895709561957F4F0895D0
:1034D000A1E21A2EAA1BBB1BFD010DC0AA1FBB1F18
:1034E000EE1FFF1FA217B307E407F50720F0A21B8A
:1034F000B30BE40BF50B661F771F881F991F1A94F7
:1035000069F760957095809590959B01AC01BD0120
:10351000CF0108950E94AF1AA59F900DB49F900D02
:10352000A49F800D911D11240895AA1BBB1B51E17E
:1035300007C0AA1FBB1FA617B70710F0A61BB70B23
:10354000881F991F5A95A9F780959095BC01CD01C8
:103550000895EE0FFF1F0590F491E02D0994A29FAE
:10356000B001B39FC001A39F700D811D1124911D57
:10357000B29F700D811D1124911D089581E090E08E
:10358000F8940C94E41AFB01DC0102C001900D9246
:1035900041505040D8F70895FB01DC018D91019016
:1035A00080190110D9F3990B0895FB01DC014150FA
:1035B000504048F001900D920020C9F701C01D92C3
:1035C00041505040E0F7089511E0C7EFD1E004C04A
:1035D000FE010E94A91A2196C83FD107C9F7F894A5
:0235E000FFCF1B
:1035E2006E757866497644667A44514B6C36514D15
:1035F20035516132384F6851724142354157346218
:1036020000000004048000000000001A038702B1D9
:10361200026703E202C002D40200000000AD038789
:103622000236049403FD0315049503767700466180
:10363200696C656420746F20726561642066726FC4
:103642006D204448542073656E736F722100696E59
:10365200006F75740070776D006477006177007099
:0636620075000D0A0000D6
:107E0000112484B714BE81FFF0D085E080938100F7
:107E100082E08093C00088E18093C10086E0809377
:107E2000C20080E18093C4008EE0C9D0259A86E02C
:107E300020E33CEF91E0309385002093840096BBD3
:107E4000B09BFECF1D9AA8958150A9F7CC24DD24C4
:107E500088248394B5E0AB2EA1E19A2EF3E0BF2EE7
:107E6000A2D0813461F49FD0082FAFD0023811F036
:107E7000013811F484E001C083E08DD089C08234E0
:107E800011F484E103C0853419F485E0A6D080C0E4
:107E9000853579F488D0E82EFF2485D0082F10E0AE
:107EA000102F00270E291F29000F111F8ED06801E7
:107EB0006FC0863521F484E090D080E0DECF843638
:107EC00009F040C070D06FD0082F6DD080E0C81688
:107ED00080E7D80618F4F601B7BEE895C0E0D1E017
:107EE00062D089930C17E1F7F0E0CF16F0E7DF06D8
:107EF00018F0F601B7BEE89568D007B600FCFDCFD4
:107F0000A601A0E0B1E02C9130E011968C91119780
:107F100090E0982F8827822B932B1296FA010C0160
:107F200087BEE89511244E5F5F4FF1E0A038BF0790
:107F300051F7F601A7BEE89507B600FCFDCF97BE46
:107F4000E89526C08437B1F42ED02DD0F82E2BD052
:107F50003CD0F601EF2C8F010F5F1F4F84911BD097
:107F6000EA94F801C1F70894C11CD11CFA94CF0C13
:107F7000D11C0EC0853739F428D08EE10CD085E9AC
:107F80000AD08FE07ACF813511F488E018D01DD067
:107F900080E101D065CF982F8091C00085FFFCCF94
:107FA0009093C60008958091C00087FFFCCF809118
:107FB000C00084FD01C0A8958091C6000895E0E648
:107FC000F0E098E1908380830895EDDF803219F02E
:107FD00088E0F5DFFFCF84E1DECF1F93182FE3DFCA
:107FE0001150E9F7F2DF1F91089580E0E8DFEE27F6
:047FF000FF270994CA
:027FFE00040479
:0400000300007E007B
:00000001FF
