:100000000C947B010C94A3010C94A3010C94920416
:100010000C9492040C9492040C94A3010C94A301EC
:100020000C94A3010C94A3010C94A3010C94A301C0
:100030000C94A3010C94A3010C94A3010C94A301B0
:100040000C94F0030C94A3010C9460040C943A04F7
:100050000C94A3010C94A3010C94A3010C94A30190
:100060000C94A3010C94A3015D2000626C6E6B697B
:100070006E660076657200312E302E3100682D627A
:1000800065617400343500627566662D696E0032F4
:100090003536006465760041726475696E6F20556F
:1000A0006E6F006370750041546D6567613332385F
:1000B0005000636F6E0053747265616D0062756904
:1000C0006C64004E6F762032352032303231203170
:1000D000353A34303A34340000000D0A2020202014
:1000E0005F5F5F20205F5F202020202020202020D5
:1000F000205F5F0D0A2020202F205F20292F202F36
:100100005F205F5F5F5F5F20202F202F5F5F0D0A02
:1001100020202F205F20202F202F202F2F202F2046
:100120005F205C2F2020275F2F0D0A202F5F5F5F4D
:100130005F2F5F2F5C5F2C202F5F2F2F5F2F5F2F94
:100140005C5F5C0D0A20202020202020202F5F5F94
:100150005F2F2076312E302E31206F6E2041726459
:1001600075696E6F20556E6F0D0A00000000002447
:100170000027002A00436F6E6E656374696E672EF8
:100180002E2E006D73292E0052656164792028702F
:10019000696E673A200000000008000201000003B9
:1001A00004070000000000000000B202B202B20228
:1001B000B202B202B202B202B202B202B202B2029F
:1001C000B202B202B202B202B202B202B202B2028F
:1001D000B202B202B202B202B202B202B202B2027F
:1001E000B202B202B202B202B202B102B102B10272
:1001F000B102B102B102B102B102B102B102B10267
:10020000B102B102B102B102B102B102B102B10256
:10021000B102B102B102B102B102B102B102B10246
:10022000B102B102B102B102B102496E76616C69EC
:100230006420485720636D643A20005365727665E8
:10024000723A20005265646972656374696E672052
:10025000746F20005265616479005061636B65744E
:1002600020746F6F206269673A2000436F6E6E657D
:100270006374206661696C65642E20636F64653AFF
:100280002000496E76616C69642061757468207421
:100290006F6B656E004C6F67696E2074696D656F7A
:1002A0007574004865617274626561742074696D6B
:1002B000656F75740000000000230026002900000F
:1002C000000000250028002B00040404040404049A
:1002D00004020202020202030303030303010204F5
:1002E00008102040800102040810200102040810B8
:1002F00020004511D20E11241FBECFEFD8E0DEBF83
:10030000CDBF11E0A0E0B1E0E6EAFBE202C005905B
:100310000D92AE37B107D9F722E0AEE7B1E001C0E8
:100320001D92A83AB207E1F711E0CAE7D1E004C094
:100330002197FE010E949A15C937D107C9F70E947B
:10034000EE0E0C94C6150C940000CF92DF92EF9243
:10035000FF920F931F93CF93DF936C017A018B0170
:10036000C0E0D0E0CE15DF0581F0D8016D918D01A0
:10037000D601ED91FC910190F081E02DC601099527
:10038000892B11F02196EECF7E01C701DF91CF912D
:100390001F910F91FF90EF90DF90CF900895FC0197
:1003A000538D448D252F30E0842F90E0821B930BDA
:1003B000541710F0CF96089501970895FC01918D80
:1003C000828D981761F0828DDF01A80FB11D5D96B7
:1003D0008C91928D9F5F9F73928F90E008958FEF25
:1003E0009FEF0895FC01918D828D981731F0828DD9
:1003F000E80FF11D858D90E008958FEF9FEF089530
:10040000FC01918D228D892F90E0805C9F4F821B93
:1004100091098F73992708958BEC91E00E94000257
:1004200021E0892B09F420E0822F0895FC01848DBE
:10043000DF01A80FB11DA35ABF4F2C91848D90E00E
:1004400001968F739927848FA689B7892C93A089E9
:10045000B1898C91837080648C93938D848D981373
:1004600006C00288F389E02D80818F7D8083089506
:10047000EF92FF920F931F93CF93DF93EC0181E0F4
:10048000888F9B8D8C8D981305C0E889F9898081B0
:1004900085FD26C0F62E0B8D10E00F5F1F4F0F73EA
:1004A0001127E02E8C8DE8120CC00FB607FCFACF96
:1004B000E889F989808185FFF5CFCE010E94160277
:1004C000F1CF8B8DFE01E80FF11DE35AFF4FF08253
:1004D0009FB7F8940B8FEA89FB89808180620AC0FC
:1004E0009FB7F894EE89FF896083E889F989808154
:1004F0008370806480839FBF81E090E0DF91CF9123
:100500001F910F91FF90EF900895CF93DF93EC012F
:10051000888D8823C9F0EA89FB89808185FD05C023
:10052000A889B9898C9186FD0FC00FB607FCF5CF5D
:10053000808185FFF2CFA889B9898C9185FFEDCFA5
:10054000CE010E941602E7CFDF91CF91089580E09F
:1005500090E0892B29F00E940C0281110C9400007C
:100560000895089508952091C0013091C101281780
:10057000390771F49091BE018091BF01981741F045
:10058000E091BE01F0E0E258FE4F808190E00895D6
:100590008FEF9FEF08951F93CF93DF93DC015C965D
:1005A0008D919C915D97009739F421E030E013968E
:1005B0003C932E9312973BC05196ED91FC9152972C
:1005C00050962C915097322F30951FB75E964C91D4
:1005D0005E97742F727041FD6095F8944081772387
:1005E00011F0422B01C043234083EC012197F1F726
:1005F00048E0508160FF02C0522B01C0532350835A
:10060000EC012197F1F76695415099F780817723A6
:1006100019F08323808302C0282B20831FBF5C96A0
:100620008D919C915D970197F1F781E090E0DF91CA
:10063000CF911F9108952091C0013091C1012817D9
:10064000390771F48091BF012091BE0190E0805C78
:100650009F4F821B910960E470E00E94501508953D
:1006600080E090E008952091C0013091C1012817E9
:100670003907B9F49091BE018091BF01981789F0B4
:10068000E091BE01F0E0E258FE4F80812091BE0172
:1006900030E02F5F3F4F2F7333272093BE0190E050
:1006A00008958FEF9FEF089580E090E008950895FA
:1006B0000E94A015833081F028F4813099F08230B7
:1006C000A1F008958730A9F08830B9F08430D1F4D2
:1006D000809180008F7D03C0809180008F77809310
:1006E0008000089584B58F7702C084B58F7D84BD66
:1006F00008958091B0008F7703C08091B0008F7D06
:100700008093B0000895CF93DF9390E0FC01E35213
:10071000FD4F2491FC01E753FD4F8491882361F143
:1007200090E0880F991FFC01E559FE4FC591D491C7
:10073000FC01E154FD4FA591B491611109C09FB72F
:10074000F8948881209582238883EC912E230BC016
:10075000623061F49FB7F8948881322F30958323FB
:100760008883EC912E2B2C939FBF06C08FB7F894F3
:10077000E8812E2B28838FBFDF91CF9108953FB75B
:10078000F8948091C7019091C801A091C901B091DE
:10079000CA0126B5A89B05C02F3F19F00196A11DDF
:1007A000B11D3FBFBA2FA92F982F8827820F911D07
:1007B000A11DB11DBC01CD0142E0660F771F881F4E
:1007C000991F4A95D1F708952FB7F8946091C30106
:1007D0007091C4018091C5019091C6012FBF089509
:1007E0001F920F920FB60F9211242F933F938F9366
:1007F0009F93AF93BF938091C3019091C401A09147
:10080000C501B091C6013091C20123E0230F2D37FD
:1008100020F40196A11DB11D05C026E8230F029604
:10082000A11DB11D2093C2018093C3019093C40107
:10083000A093C501B093C6018091C7019091C801F2
:10084000A091C901B091CA010196A11DB11D80936B
:10085000C7019093C801A093C901B093CA01BF9189
:10086000AF919F918F913F912F910F900FBE0F905D
:100870001F9018951F920F920FB60F9211242F936D
:100880003F934F935F936F937F938F939F93AF9318
:10089000BF93EF93FF938BEC91E00E941602FF91C0
:1008A000EF91BF91AF919F918F917F916F915F91E8
:1008B0004F913F912F910F900FBE0F901F90189561
:1008C0001F920F920FB60F9211242F938F939F9325
:1008D000EF93FF93E091DB01F091DC018081E091E7
:1008E000E101F091E20182FD12C090818091E4016A
:1008F0008F5F8F732091E501821751F0E091E40141
:10090000F0E0E553FE4F958F8093E40101C08081B4
:10091000FF91EF919F918F912F910F900FBE0F90AC
:100920001F9018951F920F920FB60F9211242F93BC
:100930003F934F935F936F937F938F939F93AF9367
:10094000BF93EF93FF93E091C001F091C101309705
:1009500009F451C0968DA685B785858591FF04C0A1
:100960009C91892329F447C09C91892309F043C0B5
:10097000A389B4899C918589809589238C938689E4
:1009800097890197F1F7608D718DA685B78555859B
:1009900038E020E0CB010197F1F7822F90E09595A8
:1009A0008795282F4C91452309F02068315091F705
:1009B000868D81FD20958091BF0190E001968F7317
:1009C00099273091BE01381749F0A091BF01B0E0DE
:1009D000A258BE4F2C938093BF0103C0868D8160C7
:1009E000868F828D938D0197F1F7A389B4899C91AD
:1009F0008589892B8C93FF91EF91BF91AF919F9146
:100A00008F917F916F915F914F913F912F910F90B7
:100A10000FBE0F901F9018958F929F92AF92BF922A
:100A2000CF92DF92EF92FF920F931F93CF93DF93BA
:100A30006C018B017B01E40EF51E0E94E4034B0167
:100A40005C01E801CE15DF05D8F40E94E403DC0167
:100A5000CB0188199909AA09BB0980379741A105DB
:100A6000B10570F4D6018D919C91DC01ED91FC9162
:100A70000284F385E02D099597FDE4CF8993E2CFB9
:100A8000CE01801B910BDF91CF911F910F91FF90B1
:100A9000EF90DF90CF90BF90AF909F908F90089590
:100AA0002F923F924F925F926F927F928F929F927E
:100AB000AF92BF92CF92DF92EF92FF920F931F936C
:100AC000CF93DF9300D000D000D0CDB7DEB75C016C
:100AD0006E834A013901DC01ED91FC91828188230A
:100AE00009F4ECC0862F8D7F09F4E3C0663009F469
:100AF000E0C06D3109F4DDC0F5018789908D019763
:100B000009F0DCC0452BE9F4D50154968D909C90FA
:100B1000559781149104A9F452968D919C91539705
:100B2000019629F053969C938E93529705C081E0CD
:100B300090E0F501938B828BD50152968D909C901D
:100B400053978E818C508930B8F5F5018285938555
:100B5000A485B585468157816085718548175907F9
:100B60006A077B0710F4AC01BD011A012B01F2E406
:100B70002F0E311C411C511C0E94E403A201910163
:100B8000261B370B480B590B57FD0EC0C5010E94A1
:100B900071080E94E403A2019101261B370B480B48
:100BA000590B57FFF3CF08C0D50156968C91811190
:100BB00003C0C5010E9471086114710411F028017D
:100BC00002C0412C512CB5E04B0E511CE114F10434
:100BD00011F0C60102C080E090E0480E591EEE817F
:100BE000E9839824892498249B828A82C8018C0DE9
:100BF0009D1D9827892798279D838C83D501ED918A
:100C0000FC9180819181DC01ED91FC910280F38166
:100C1000E02D45E050E0BE016F5F7F4F09950E94D7
:100C20006B0EBE81BB2371F10115110599F0D50141
:100C3000ED91FC9180819181DC01ED91FC9102802C
:100C4000F381E02DA801B30109950B5F1F4F0E94AE
:100C50006B0E02C005E010E0C114D104A9F0D5016B
:100C6000ED91FC9180819181DC01ED91FC910280FC
:100C7000F381E02DA601B70109950C0D1D1D0E9401
:100C80006B0E02C005E010E00415150541F0F501FA
:100C9000108E178A0190F081E02D12820FC00E9401
:100CA000E403D5011A966D937D938D939C931D97C4
:100CB00005C08114910409F07FCF26CF26960FB688
:100CC000F894DEBF0FBECDBFDF91CF911F910F9182
:100CD000FF90EF90DF90CF90BF90AF909F908F905C
:100CE0007F906F905F904F903F902F900895AF92BC
:100CF000BF92CF92DF92EF92FF920F931F93CF9309
:100D0000DF93CDB7DEB7C55AD1090FB6F894DEBF71
:100D10000FBECDBF5C0145E650E063E770E0CE0159
:100D200001960E949313C12CD12CCE018A599F4F5A
:100D30007C0105E610E09E012F5F3F4F40E050E050
:100D400061E1C5010E945005CB55DF4F0FB6F89405
:100D5000DEBF0FBECDBFDF91CF911F910F91FF90EE
:100D6000EF90DF90CF90BF90AF9008950F931F93B7
:100D7000CF93DF93FC01228133816115710561F40A
:100D800080819181A9014F5F5F4F53834283FC01B2
:100D9000E20FF31F10821DC0DB010D900020E9F768
:100DA0008D01061B170BA801420F531F84819581EB
:100DB0008417950770F0EF0180819181A801820F5F
:100DC000931F0E94A5154A815B81400F511F5B83D1
:100DD0004A83DF91CF911F910F9108950F931F9335
:100DE000CF93DF93CDB7DEB762970FB6F894DEBF2F
:100DF0000FBECDBF8C01CB014AE0BE016F5F7F4FBC
:100E00000E949C13BE016F5F7F4FC8010E94B6060F
:100E100062960FB6F894DEBF0FBECDBFDF91CF91C3
:100E20001F910F910895DC01ED91FC91119730977E
:100E300061F012962D913C911397E217F30728F475
:100E400001900020E9F7ED93FC930895FC01808167
:100E50009181009739F0228133818217930710F432
:100E60000C944E1380E090E008956BE582E892E0E8
:100E70000E94CB020E94E4034AE00E941C0E88E616
:100E800090E00C94EF0DCF92DF92EF92FF920F93D0
:100E90001F93CF93DF93CDB7DEB7C658D1090FB6F6
:100EA000F894DEBF0FBECDBF8C01CE010196CF57A7
:100EB000DF4F99838883C158D040CD57DF4F1982C7
:100EC0001882C358D04080E890E0CB57DF4F998319
:100ED0008883C558D04060E571E0CE018F579F4FA1
:100EE0000E94B606B801CE018F579F4F0E94EE06B2
:100EF00063E571E0CE018F579F4F0E94B606CD5734
:100F0000DF4F08811981C358D04001501109CF57D4
:100F1000DF4F28813981C158D040C12CD12CE12C20
:100F2000F12C40E050E064E189E692E00E94500537
:100F3000CA57DF4F0FB6F894DEBF0FBECDBFDF91AB
:100F4000CF911F910F91FF90EF90DF90CF90089578
:100F5000CF92DF92EF92FF920F931F93CF93DF9385
:100F6000CDB7DEB72E970FB6F894DEBF0FBECDBF5C
:100F70008C017B016A01CE0101969A8789871C86C4
:100F80001B8688E090E09E878D8760E571E0CE014A
:100F900009960E94B606B801CE0109960E94EE0697
:100FA0000B851C8529853A8540E050E064E189E69F
:100FB00092E00E9450052E960FB6F894DEBF0FBE49
:100FC000CDBFDF91CF911F910F91FF90EF90DF90F8
:100FD000CF900895CF93DF93CDB7DEB7C658D10930
:100FE0000FB6F894DEBF0FBECDBFCE010196CF572E
:100FF000DF4F99838883C158D040CD57DF4F198286
:101000001882C358D04080E890E0CB57DF4F9983D7
:101010008883C558D0406EE471E0CE018F579F4F52
:101020000E94B60660E070E0CE018F579F4F0E948D
:10103000EE0660E070E0CE018F579F4F0E94EE06F3
:1010400067E571E0CE018F579F4F0E94B606CD57DE
:10105000DF4F48815981C358D040CF57DF4F688157
:101060007981C158D0408091680290E00E94A80721
:10107000CA57DF4F0FB6F894DEBF0FBECDBFDF916A
:10108000CF9108951F93CF93DF93282F30E0F9017C
:10109000EA56FE4F8491F901E352FD4FD491F901D4
:1010A000E753FD4FC491CC23C1F0162F81110E944C
:1010B0005A03EC2FF0E0EE0FFF1FE154FD4FA59116
:1010C000B4919FB7F894111104C08C91D095D82396
:1010D00002C0EC91DE2BDC939FBFDF91CF911F917B
:1010E00008952F923F924F925F926F927F928F92CC
:1010F0009F92AF92BF92CF92DF92EF92FF920F93A7
:101100001F93CF93DF93CDB7DEB7A3970FB6F894B5
:10111000DEBF0FBECDBF5C012DB73EB73BA32AA3F8
:101120000E946B0ED50157968D919C91589702970E
:1011300009F41FC156968C9156978F5F56968C93E3
:10114000569754962D913C915597232B09F007C142
:10115000833008F004C1D501ED91FC919280992073
:10116000B1F0FE0131963F0150E1452E512CD501E1
:10117000ED91FC9180819181DC01ED91FC910084E5
:10118000F185E02D0995181619060CF4F4C00E949B
:10119000E4032B013C01F50100811181D801129675
:1011A0008C9012978789908D8130910509F06EC0DF
:1011B000811009C046865786608A718A108E178A08
:1011C00012961C92CEC0F50186819781A085B185CB
:1011D000A3019201281B390B4A0B5B0BDA01C901F1
:1011E000893136EF9307A105B10578F00E943507E4
:1011F00083EA92E00E945D0ED50158961C921E92E1
:101200005797ED91FC91128266C0893C9F4AA105D7
:10121000B10598F4F50182859385A485B585A30170
:101220009201281B390B4A0B5B0BDA01C901893C7F
:101230009F4AA105B10508F492C0F50186859785FE
:10124000A089B189A3019201281B390B4A0B5B0BC2
:10125000DA01C90181379741A105B10508F47FC0C2
:10126000C12CD12CE12CF12C00E010E020E030E08A
:1012700040E050E066E0C5010E945005D5011E9691
:101280004D925D926D927C9251976BC0892B09F0C3
:1012900066C0F50186859785A089B189481A590AE3
:1012A0006A0A7B0A8820C9F0F1E74F16F7E15F066A
:1012B0006104710408F453C00E94350785E992E087
:1012C0000E945D0ED501ED91FC9111971282589606
:1012D0001C921E925797812C44C0B9E84B16B3E17B
:1012E0005B0661047104D8F1F80112820E9435078F
:1012F00085E791E00E945D0ED8018D919C91DC0103
:10130000ED91FC910680F781E02D099581E0F801CF
:10131000828381E090E0D50153969C938E935297FF
:1013200012962D913C911397F90101900020E9F755
:1013300031978F01021B130BC12CD12CE12CF12C06
:1013400041E050E06DE1C5010E945005F501828544
:101350009385A485B58586879787A08BB18B8824D4
:101360008394D50156968C915697815056968C93BE
:1013700015C4812C13C445E050E0BE01695E7F4F67
:10138000F501808191810E940C05009709F496C3B4
:10139000059709F077C0888D998D98278927982718
:1013A000998F888FEA8CFB8CFE24EF24FE24FB8E21
:1013B000EA8E892B09F466C08F89811169C00E9469
:1013C000E403F50166837783808791872789308DD1
:1013D0008A8D9B8D232B09F057C0288D398D2130A4
:1013E000310509F051C089309105A1F1883C910582
:1013F00011F00497E9F50E94350788E891E00E9412
:10140000EF0DF50186819781A085B1850685178549
:1014100020893189BC01CD01601B710B820B930BBC
:101420004AE00E941C0E83E891E00E945D0EF501E7
:1014300086819781A085B18586879787A08BB18BA0
:1014400021E030E0308F278BC5010E9477060E9493
:101450006B0E34C30E94350782E892E00E945D0E55
:1014600083E090E0D50158969C938E9357970AC0DD
:101470000E9435078BE692E00E94EF0D8A8D9B8DCE
:101480000E947B0E812C1DC3059709F070CEFACF08
:10149000B1E0EB16FB0690F00E9435078AE592E07A
:1014A0000E94EF0D8A8D9B8D0E947B0EF501108EA0
:1014B000178A0190F081E02D128200C32DB73EB74C
:1014C00039A328A3C70101964DB75EB7481B590B36
:1014D0000FB6F8945EBF0FBE4DBF0DB71EB70F5FBE
:1014E0001F4FA701B801D5018D919C910E940C0559
:1014F0008E159F0509F0D7C2EA8DFB8DE00FF11F15
:1015000010820E94E403F5016683778380879187C8
:101510008F89813109F49DC248F4863059F18F30AA
:1015200009F4ACC0823009F0B6C20DC08D3159F05B
:1015300020F4843109F4A2C0AEC2893251F187335C
:1015400009F49BC2A8C2D50157968D919C915897DA
:10155000892B81F40E94350784E592E00E945D0E9C
:1015600021E030E0F501308F278BC5010E9477061E
:101570000E946B0E488D598DC12CD12CE12CF12C81
:1015800008EC10E020E030E060E0C5010E9450056A
:101590008CC284819581892B39F480E490E00E948B
:1015A0002D12F50195838483EA8CFB8CE00EF11EED
:1015B0001A830983FC82EB820E151F0508F073C2A3
:1015C00040E450E0B801D50114968D919C91159797
:1015D0000E94B715D5011496ED91FC91159717AEA1
:1015E000C3010E941307FC01808191818E159F0524
:1015F00078F489819A81009731F02B813C818217A0
:10160000930708F463C260E070E0CB018B0102C075
:1016100000E510E00E94350784E492E00E94EF0D9F
:10162000D50114968D919C9115970E940A0E6AE33C
:1016300082E892E00E94CB02C8010E947B0ED50195
:10164000ED91FC911197128258961C921E92579719
:101650000E94E403DC01CB0188589341A109B10940
:10166000F50182879387A487B58786839783A087B0
:10167000B18786879787A08BB18B17C2888D998D8C
:10168000D50155969C938E9354972A8C3B8C780168
:10169000E20CF31C1D8F0C8FFF8EEE8E0E151F05B6
:1016A00008F0D3C1F801C080D180CE014C960E94D1
:1016B0001307DC018D919C918E159F0508F0C5C123
:1016C0008C8D9D8DFC012081213459F401960E945E
:1016D0004E13863091050CF044C14EE0842E880EE6
:1016E00005C0CE014C960E942607882EF6E7CF163D
:1016F000F2E7DF0609F43DC168F431E6C31632E7CC
:10170000D30609F47FC044E6C41642E7D40609F0C4
:101710007CC11BC084E6C81687E7D80609F45AC006
:1017200096E7C91697E7D90609F445C1A1E6CA1696
:10173000A7E7DA0609F06FC1AAC044E6C41642E77B
:10174000D40609F062C188248A947A8A698A1C8A3C
:101750001B8A5E8A4D8A61E771E0CE0141960E9444
:10176000B606082D10E0B801CE0141960E94EE06A3
:10177000F801EA56FE4F8491F801E352FD4FF490D0
:10178000F801E753FD4F0491002399F081110E9465
:101790005A03E02FF0E0EE0FFF1FEB54FD4FA59131
:1017A000B491EC91FE2261E070E009F056C060E077
:1017B00054C060E070E051C027E7C21622E7D206AD
:1017C00008F487C184E6C81687E7D80609F0EBC09D
:1017D00088248A94CE014C960E941307DC018D91D7
:1017E0009C918E159F0508F030C161E0882D0E9404
:1017F0008303CE014C960E94260761E0892B09F0F5
:1018000066C0ADC07A8A698A1C8A1B8A5E8A4D8A44
:1018100064E771E0CE0141960E94B606682D70E043
:10182000CE0141960E94EE06BDE0B81510F4E2EF3D
:101830008E0E882D8770806480937C0080917A0062
:10184000806480937A0080917A0086FDFCCF60915D
:1018500078008091790070E0782BCE0141960E944B
:10186000EE060B891C890150110929893A89C12C7E
:10187000D12CE12CF12C40E050E064E1E3C0A1E682
:10188000CA16A7E7DA0609F0C6C088248A94CE01F2
:101890004C960E941307DC018D919C918E159F053B
:1018A00008F0D3C061E0882D0E948303CE014C96DE
:1018B0000E9426078C0161E0882D0E948303011598
:1018C000110509F44CC00F3F110529F461E0882D82
:1018D0000E944208BAC0E82DF0E0EA56FE4FE491BB
:1018E000E330F9F048F4E130B9F0E230A1F584B525
:1018F000806284BD08BDA9C0E730E9F0E83019F185
:10190000E43049F5809180008062809380001093DC
:101910008B0000938A0099C084B5806884BD07BDA0
:1019200094C080918000806880938000109389002B
:10193000009388008AC08091B00080688093B000D6
:101940000093B30082C08091B00080628093B000A9
:101950000093B4007AC0003811050CF0B7CF60E0F6
:10196000B6CFF6E7CF16F2E7DF0609F025CF8824D9
:101970008A948982BFE1B81508F467C0E82DF0E0C9
:10198000EE0FFF1FE655FE4F2591349121153105CD
:1019900009F45BC0E2E0223B3E0709F456C0C301F4
:1019A000F901099552C096E7C91697E7D90609F0DB
:1019B00066CF88248A94CE014C960E9413078C8DA2
:1019C0009D8D9C01201B310B221A330A9A83898337
:1019D0003C822B823E822D82898AFFE1F815A8F194
:1019E000E82DF0E0EE0FFF1FE651FE4F25913491F8
:1019F0002115310551F142E0213B340731F1B301AA
:101A0000CE014196F901099520C050E7C5165DE663
:101A1000D50609F49BC00E9435078AE292E00E9435
:101A2000EF0DC8010E946D0ED50154964D915C9149
:101A30005597C12CD12CE12CF12C02E010E020E0D4
:101A400030E060E0C5010E945005F501158A148A56
:101A50002CC08A8D9B8D800F911F1A8309839C83D4
:101A60008B830817190708F5C3010E941307D501D6
:101A700055961C921E92549718C08A8D9B8D892B67
:101A8000A1F00E9435078BE392E00E94EF0DC801A0
:101A90000E946D0E0AC0F501108E178A0190F08128
:101AA000E02D128202C0812C01C0892C28A139A10D
:101AB0000FB6F8943EBF0FBE2DBF01C0892C811018
:101AC00056CBD501ED91FC9112824BCC0E946C1348
:101AD0009DCD31E6C31632E7D30609F02ECE7A8AC1
:101AE000698A1C8A1B8A5E8A4D8A64E771E0CE018E
:101AF00041960E94B6066FEF70E0CE0141960E94BB
:101B0000EE0688248A9493CEFC012081213421F5AD
:101B100001960E944E138630910524F53EE0D32EA7
:101B2000D80ECE014C960E9413070C8D1D8D66E6D3
:101B300071E0C8010E94AE15892BB9F460E08D2DCB
:101B40000E948303CE014C960E9413078C8D9D8DBD
:101B50008E159F05C8F279CFCE014C960E942607BC
:101B6000D82EDFCFDD24DA94DCCF69E671E0C8013E
:101B70000E94AE15892B39F06DE671E0C8010E9414
:101B8000AE15892B11F461E0DACF67E771E0C80187
:101B90000E94AE15892BB1F662E0D1CF882DEAA163
:101BA000FBA10FB6F894FEBF0FBEEDBFA3960FB614
:101BB000F894DEBF0FBECDBFDF91CF911F910F9183
:101BC000FF90EF90DF90CF90BF90AF909F908F905D
:101BD0007F906F905F904F903F902F9008950F935C
:101BE0001F93CF93DF938C01C0E0D0E0F801EC0F9E
:101BF000FD1F6491662341F082E892E00E94CB02CF
:101C0000892B11F02196F2CFCE01DF91CF911F9158
:101C10000F910895009769F0FC0101900020E9F709
:101C20003197AF01481B590BBC0182E892E00C943C
:101C3000A50180E090E008958F929F92AF92BF92AD
:101C40000F931F93CF93DF93CDB7DEB7A1970FB656
:101C5000F894DEBF0FBECDBF19A2423008F44AE0AF
:101C60008E010F5D1F4F842E912CA12CB12CA5014C
:101C700094010E946415E62FB901CA0101501109AF
:101C8000EA3014F4E05D01C0E95CD801EC93232B49
:101C9000242B252B61F7C8010E940A0EA1960FB6CE
:101CA000F894DEBF0FBECDBFDF91CF911F910F9192
:101CB000BF90AF909F908F900895CF93DF930E9435
:101CC000EF0DEC018AE791E00E940A0E8C0F9D1F38
:101CD000DF91CF9108950C94BF03CF93DF930E94BF
:101CE0000A0EEC018AE791E00E940A0E8C0F9D1FFC
:101CF000DF91CF910895CF93DF93BC0180E090E016
:101D00004AE00E941C0EEC018AE791E00E940A0E54
:101D10008C0F9D1FDF91CF910895CF92DF92EF92AC
:101D2000FF920F931F93E82FF92F05C0015011095F
:101D30002109310961F1908196239417B9F305C007
:101D4000015011092109310911F190819623941351
:101D5000F7CFC12CD12CE12CF12C0AC08FEFC81A7F
:101D6000D80AE80AF80A0C151D052E053F0579F07A
:101D700080818623841791F36C2D7D2D8E2D9F2DD0
:101D80001F910F91FF90EF90DF90CF90089560E04A
:101D900070E080E090E01F910F91FF90EF90DF9056
:101DA000CF9008958DE391E0909383028093820217
:101DB0008091C0019091C1018258924071F4E091EC
:101DC0009502F091960290818091970280958923E7
:101DD00080831092C1011092C0010895CF93DF93C8
:101DE000CDB7DEB7C85AD1090FB6F894DEBF0FBE23
:101DF000CDBF789484B5826084BD84B5816084BD94
:101E000085B5826085BD85B5816085BD80916E0098
:101E1000816080936E0010928100809181008260C9
:101E20008093810080918100816080938100809106
:101E300080008160809380008091B10084608093F5
:101E4000B1008091B00081608093B00080917A00F1
:101E5000846080937A0080917A00826080937A0017
:101E600080917A00816080937A0080917A00806806
:101E700080937A001092C10010929D0210929C02F1
:101E800010929B0210929A0210929902109298025C
:101E90008DE991E090939F0280939E0290918E0233
:101EA000963108F058C02DEB30E030939902209322
:101EB00098022BE931E030939B0220939A022CE2A6
:101EC00031E030939D0220939C024091680098304D
:101ED00058F031E09E3008F430E021E0822F01C05C
:101EE000880F3A95EAF701C084E0842B809368005C
:101EF000983038F09E3040F0963148F020E030E0E5
:101F000008C02DE630E005C02BE630E002C02CE62C
:101F100030E03093960220939502983030F481E0BF
:101F200001C0880F9A95EAF70EC0292F30E09E3045
:101F300018F42850310902C02E50310981E001C047
:101F4000880F2A95EAF78093970280919E029091DC
:101F50009F020197F1F780919C0290919D02892B3D
:101F600049F1E091C001F091C10122E0E238F207AD
:101F700009F1309739F0A389B4899C9185898095BE
:101F800089238C938091A0028E7F8093A00210926F
:101F9000BF011092BE0182E892E09093C10180934C
:101FA000C001E0919502F091960290818091970294
:101FB000892B8083E091DB01F091DC0182E080835A
:101FC000E091D701F091D8011082E091D901F09110
:101FD000DA018FEC80831092E301E091DF01F09150
:101FE000E00186E08083E091DD01F091DE018081F7
:101FF00080618083E091DD01F091DE018081886065
:102000008083E091DD01F091DE0180818068808332
:10201000E091DD01F091DE0180818F7D808361E0C0
:1020200083E00E94830360E084E00E94830380E0F9
:1020300091E090936C0280936B020E94E403DC01B8
:10204000CB0188589341A109B10980937302909301
:102050007402A0937502B093760280936F029093FE
:102060007002A0937102B0937202809377029093F2
:102070007802A0937902B0937A020E9435078AED24
:1020800090E00E945D0EE0916902F0916A028BEC93
:1020900091E091838083E0916902F0916A0212825B
:1020A00010928102109280020E94E4036B017C0175
:1020B0008091800290918102019791F00E94E40347
:1020C000DC01CB018C199D09AE09BF09803596440E
:1020D000A105B10528F489E692E00E947108E8CFD5
:1020E00080918002909181020197A9F68091680207
:1020F00090E00E9443070E94EA0797E0A92EB12CC6
:102100002BE2822E912C31EE232E32E0332ECE01A3
:1021100001966C0140E8E42EF12C89E692E00E94E1
:1021200071088091680290E00E9443070E94EA07CC
:1021300060E083E00E944208C5010197F1F761E089
:1021400083E00E944208C4010197F1F760E083E058
:102150000E944208F1016491EDECF2E08491E82FD5
:10216000F0E0EE0FFF1FEB54FD4F8591949100E4DA
:1021700012E42FE030E0462F0E948D0E61157105AC
:102180008105910549F0DC01CB010196A11DB11D2E
:10219000BC01CD019F7003C060E070E0CB010E94E4
:1021A000571426E933E44BE05DE30E94BB1420E0C2
:1021B00030E040E05FE30E94BB140E941F142B013B
:1021C0003C0197FF10C06DE282E892E00E94CB02D2
:1021D00088279927DC0184199509A609B7094AE0DF
:1021E000BC01CD0101C04AE00E941C0E8BE491E0CD
:1021F0000E946D0ECD55DF4FD982C882C35AD040A0
:10220000CB55DF4F19821882C55AD040C955DF4FD0
:10221000F982E882C75AD0406EE471E0CE018D5554
:102220009F4F0E94B60667E070E0CE018D559F4F2C
:102230000E94EE0661E070E0CE018D559F4F0E9436
:10224000EE062AE0AE014F575F4FC301B2010E9474
:10225000A713BE016F577F4FCE018D559F4F0E9430
:10226000B606CB55DF4F48815981C55AD040CD5570
:10227000DF4F68817981C35AD0408091680290E035
:102280000E94A8070E94A70248CF1092CE01109288
:10229000CD0188EE93E0A0E0B0E08093CF01909371
:1022A000D001A093D101B093D2012BE231E0309361
:1022B000CC012093CB0125EC30E03093D801209362
:1022C000D70124EC30E03093DA012093D90120ECDF
:1022D00030E03093DC012093DB0121EC30E03093DF
:1022E000DE012093DD0122EC30E03093E001209309
:1022F000DF0126EC30E03093E2012093E1011092FF
:10230000E4011092E5011092E6011092E7011092AB
:102310008502109284028093860290938702A09394
:102320008802B09389028DE391E0909383028093B9
:102330008202109299021092980210929B021092BF
:102340009A0210929D0210929C0210929F0210928B
:102350009E026091A0026E7F6D7F6093A0026695E1
:10236000617081E068278BE00E94420861E08BE0A9
:102370000E948303E8EEF2E0E491E0939202E4ED40
:10238000F2E0E491F0E0EE0FFF1FE154FD4F859184
:102390009491909394028093930260E08AE00E946B
:1023A00083038091A00281FD04C061E08AE00E9465
:1023B00042088AE080938E02E7EEF2E0E491E09337
:1023C0008F02E3EDF2E0E491F0E0EE0FFF1FEB543B
:1023D000FD4F859194919093910280939002109279
:1023E000A2021092A1021092A30281EA92E09093BD
:1023F0006A028093690210926C0210926B02109232
:102400006E0210926D0210926F0210927002109282
:102410007102109272021092730210927402109262
:102420007502109276021092770210927802109242
:10243000790210927A0210927C0210927B02109222
:102440007E0210927D0210927F0210928102109201
:10245000800281E08093680208950F931F93CF93C9
:10246000DF938230910510F482E090E0E091A602C3
:10247000F091A70220E030E0A0E0B0E0309719F141
:10248000408151810281138148175907C8F0841790
:10249000950769F4109731F012960C9312971396E2
:1024A0001C9327C00093A6021093A70222C02115F7
:1024B000310519F04217530718F49A01BD01EF01D5
:1024C000DF01F801DBCF21153105F9F0281B390BAD
:1024D0002430310580F48A819B816115710521F0DA
:1024E000FB019383828304C09093A7028093A6028A
:1024F000FE01329644C0FE01E20FF31F81939193D7
:1025000022503109398328833AC02091A4023091A6
:10251000A502232B41F42091230130912401309313
:10252000A5022093A40220912101309122012115BE
:10253000310541F42DB73EB7409125015091260158
:10254000241B350BE091A402F091A502E217F307DA
:10255000A0F42E1B3F0B2817390778F0AC014E5F13
:102560005F4F2417350748F04E0F5F1F5093A502A9
:102570004093A4028193919302C0E0E0F0E0CF0188
:10258000DF91CF911F910F910895CF93DF93009723
:1025900009F481C0FC01329713821282A091A60235
:1025A000B091A702109781F420813181820F931F8F
:1025B0002091A4023091A5022817390751F5F09314
:1025C000A502E093A40267C0ED0120E030E0CE1741
:1025D000DF0740F44A815B819E0141155105F1F00E
:1025E000EA01F5CFD383C28340815181840F951FC7
:1025F000C817D90759F488819981840F951F0296CD
:10260000918380838A819B81938382832115310505
:1026100029F4F093A702E093A6023DC0E901FB83F1
:10262000EA8349915991C40FD51FEC17FD0761F456
:1026300080819181840F951F0296E9019983888397
:10264000828193819B838A83E0E0F0E012968D91F2
:102650009C911397009719F0FD01DC01F7CF8D9144
:102660009C9111979D012E5F3F4F820F931F2091E8
:10267000A4023091A5022817390769F4309729F48C
:102680001092A7021092A60202C013821282B09387
:10269000A502A093A402DF91CF910895FC018827A1
:1026A0009927E89421912032E9F3293010F02E3057
:1026B000C8F32B3241F02D3239F4689404C00E94E3
:1026C000CB13820F911D219120532A30C0F31EF4A9
:1026D000909581959F4F08951F93FC019927882716
:1026E000BC01E89411911032E9F3193010F01E305A
:1026F000C8F31B3251F01D3249F4689406C00E94A1
:10270000B613610F711D811D911D119110531A3067
:10271000B0F33EF490958095709561957F4F8F4F03
:102720009F4F1F910895FB01DC0102C005900D929F
:1027300041505040D8F70895BB274A3031F49923CF
:1027400022F4BDE2909581959F4F0C94F613BB2720
:102750002A3051F4992342F4BDE29095809570950A
:1027600061957F4F8F4F9F4F0C94D413592F482F53
:10277000372F262F660F771F881F991F660F771F29
:10278000881F991F620F731F841F951F660F771F85
:10279000881F991F08957AE0979F902D879F802D1D
:1027A000910D11240895BB27FA01A62F6217710518
:1027B00081059105330B30FB66F0AA27660F771F62
:1027C000881F991FAA1FA21710F0A21B63953850EB
:1027D000A9F7A05DAA3308F0A95DA19336F7B1115E
:1027E000B1931082CA010C940F14BB27FB0155272B
:1027F000AA27880F991FAA1FA41710F0A41B83955E
:102800005051B9F7A05DAA3308F0A95DA1930097D4
:1028100079F7B111B1931192CB010C940F14DC0133
:10282000FC01672F71917723E1F7329704C07C9107
:102830006D9370836291AE17BF07C8F308950E942D
:1028400026146894B1110C94B51408950E949A143A
:1028500088F09F5798F0B92F9927B751B0F0E1F061
:10286000660F771F881F991F1AF0BA95C9F714C011
:10287000B13091F00E94B414B1E008950C94B414F6
:10288000672F782F8827B85F39F0B93FCCF386954A
:1028900077956795B395D9F73EF4909580957095A7
:1028A00061957F4F8F4F9F4F0895E89409C097FB24
:1028B0003EF490958095709561957F4F8F4F9F4F17
:1028C0009923A9F0F92F96E9BB279395F69587955B
:1028D00077956795B795F111F8CFFAF4BB0F11F41E
:1028E00060FF1BC06F5F7F4F8F4F9F4F16C08823C5
:1028F00011F096E911C0772321F09EE8872F762FFB
:1029000005C0662371F096E8862F70E060E02AF03B
:102910009A95660F771F881FDAF7880F9695879527
:1029200097F9089557FD9058440F551F59F05F3F90
:1029300071F04795880F97FB991F61F09F3F79F0E1
:1029400087950895121613061406551FF2CF469563
:10295000F1DF08C0161617061806991FF1CF8695E5
:102960007105610508940895E894BB2766277727C9
:10297000CB0197F908950E94CE140C943F150E9444
:10298000311538F00E94381520F0952311F00C9481
:1029900028150C942E1511240C94B5140E94921431
:1029A00070F3959FC1F3950F50E0551F629FF001A2
:1029B000729FBB27F00DB11D639FAA27F00DB11DBB
:1029C000AA1F649F6627B00DA11D661F829F222744
:1029D000B00DA11D621F739FB00DA11D621F839FCB
:1029E000A00D611D221F749F3327A00D611D231FA1
:1029F000849F600D211D822F762F6A2F11249F57EF
:102A000050409AF0F1F088234AF0EE0FFF1FBB1FF1
:102A1000661F771F881F91505040A9F79E3F5105B0
:102A200080F00C9428150C94B5145F3FE4F3983EA5
:102A3000D4F3869577956795B795F795E7959F5F5A
:102A4000C1F7FE2B880F911D9695879597F90895EC
:102A500097F99F6780E870E060E008959FEF80EC51
:102A6000089500240A9416161706180609060895F4
:102A700000240A9412161306140605060895092E5A
:102A80000394000C11F4882352F0BB0F40F4BF2BC9
:102A900011F460FF04C06F5F7F4F8F4F9F4F089509
:102AA00097FB072E16F4009407D077FD09D00E94FB
:102AB000861507FC05D03EF4909581959F4F0895AB
:102AC000709561957F4F0895A1E21A2EAA1BBB1B3A
:102AD000FD010DC0AA1FBB1FEE1FFF1FA217B307EA
:102AE000E407F50720F0A21BB30BE40BF50B661F00
:102AF000771F881F991F1A9469F7609570958095C4
:102B000090959B01AC01BD01CF010895AA1BBB1B91
:102B100051E107C0AA1FBB1FA617B70710F0A61BDD
:102B2000B70B881F991F5A95A9F780959095BC01FE
:102B3000CD010895EE0FFF1F0590F491E02D09944B
:102B400081E090E0F8940C94C615FB01DC0102C012
:102B500001900D9241505040D8F70895FB01DC01DF
:102B60008D91019080190110D9F3990B0895FB0103
:102B7000DC014150504048F001900D920020C9F70F
:102B800001C01D9241505040E0F7089511E0CAE79E
:102B9000D1E004C0FE010E949A152196CB37D107DF
:062BA000C9F7F894FFCF15
:102BA6006279716E6E567A7374317652797375499D
:102BB6004352574E5355562D4A596B54716E4B54CA
:102BC600000000A8028000000000003802A501CF26
:102BD6000185020002DE01F20100000000CB02A521
:102BE600015403B2021B033303B302436D007000AA
:102BF600767700636C720044697374616E63652056
:102C0600696E20636D00696E006F75740070776D74
:0E2C1600006477006177007075000D0A000001
:107E0000112484B714BE81FFF0D085E080938100F7
:107E100082E08093C00088E18093C10086E0809377
:107E2000C20080E18093C4008EE0C9D0259A86E02C
:107E300020E33CEF91E0309385002093840096BBD3
:107E4000B09BFECF1D9AA8958150A9F7CC24DD24C4
:107E500088248394B5E0AB2EA1E19A2EF3E0BF2EE7
:107E6000A2D0813461F49FD0082FAFD0023811F036
:107E7000013811F484E001C083E08DD089C08234E0
:107E800011F484E103C0853419F485E0A6D080C0E4
:107E9000853579F488D0E82EFF2485D0082F10E0AE
:107EA000102F00270E291F29000F111F8ED06801E7
:107EB0006FC0863521F484E090D080E0DECF843638
:107EC00009F040C070D06FD0082F6DD080E0C81688
:107ED00080E7D80618F4F601B7BEE895C0E0D1E017
:107EE00062D089930C17E1F7F0E0CF16F0E7DF06D8
:107EF00018F0F601B7BEE89568D007B600FCFDCFD4
:107F0000A601A0E0B1E02C9130E011968C91119780
:107F100090E0982F8827822B932B1296FA010C0160
:107F200087BEE89511244E5F5F4FF1E0A038BF0790
:107F300051F7F601A7BEE89507B600FCFDCF97BE46
:107F4000E89526C08437B1F42ED02DD0F82E2BD052
:107F50003CD0F601EF2C8F010F5F1F4F84911BD097
:107F6000EA94F801C1F70894C11CD11CFA94CF0C13
:107F7000D11C0EC0853739F428D08EE10CD085E9AC
:107F80000AD08FE07ACF813511F488E018D01DD067
:107F900080E101D065CF982F8091C00085FFFCCF94
:107FA0009093C60008958091C00087FFFCCF809118
:107FB000C00084FD01C0A8958091C6000895E0E648
:107FC000F0E098E1908380830895EDDF803219F02E
:107FD00088E0F5DFFFCF84E1DECF1F93182FE3DFCA
:107FE0001150E9F7F2DF1F91089580E0E8DFEE27F6
:047FF000FF270994CA
:027FFE00040479
:0400000300007E007B
:00000001FF
